:020000040800F2
:100000000050002091190008F5160008FD160008A0
:10001000051700080D17000815170008000000005C
:100020000000000000000000000000001D17000894
:1000300029170008000000003517000841170008C4
:10004000D9190008D9190008D9190008D9190008C8
:10005000D9190008D9190008D9190008D9190008B8
:10006000D9190008D9190008D9190008D9190008A8
:10007000D9190008D9190008D9190008D919000898
:10008000D9190008D9190008D9190008D919000888
:10009000D9190008D9190008D9190008D919000878
:1000A000D9190008D9190008D9190008D919000868
:1000B000D9190008D9190008D9190008D919000858
:1000C000D9190008D9190008D9190008D919000848
:1000D000D9190008D9190008D9190008D919000838
:1000E000D9190008D9190008D91900080000000022
:1000F0000000000000000000000000000000000000
:0C01000000000000000000005FF808F1A3
:1001100010B5054C237833B9044B13B10448AFF341
:1001200000800123237010BDD401002000000000D6
:10013000886D000808B5034B1BB103490348AFF3B2
:10014000008008BD00000000D8010020886D000874
:10015000034613F8012B002AFBD1181A0138704707
:1001600081F0004102E000BF83F0004330B54FEA68
:1001700041044FEA430594EA050F08BF90EA020FD5
:100180001FBF54EA000C55EA020C7FEA645C7FEA68
:10019000655C00F0E2804FEA5454D4EB5555B8BF8B
:1001A0006D420CDD2C4480EA020281EA030382EAFC
:1001B000000083EA010180EA020281EA0303362D8E
:1001C00088BF30BD11F0004F4FEA01314FF4801C61
:1001D0004CEA113102D0404261EB410113F0004F73
:1001E0004FEA03334CEA133302D0524263EB43032A
:1001F00094EA050F00F0A780A4F10104D5F1200EC8
:100200000DDB02FA0EFC22FA05F2801841F1000122
:1002100003FA0EF2801843FA05F359410EE0A5F1F6
:1002200020050EF1200E012A03FA0EFC28BF4CF027
:10023000020C43FA05F3C01851EBE37101F00045DD
:1002400007D54FF0000EDCF1000C7EEB00006EEBEA
:100250000101B1F5801F1BD3B1F5001F0CD3490874
:100260005FEA30004FEA3C0C04F101044FEA4452CB
:1002700012F5800F80F09A80BCF1004F08BF5FEA52
:10028000500C50F1000041EB045141EA050130BD32
:100290005FEA4C0C404141EB0101013C28BFB1F544
:1002A000801FE9D291F0000F04BF01460020B1FA8F
:1002B00081F308BF2033A3F10B03B3F120020CDA62
:1002C0000C3208DD02F1140CC2F10C0201FA0CF040
:1002D00021FA02F10CE002F11402D8BFC2F1200CA5
:1002E00001FA02F120FA0CFCDCBF41EA0C0190405B
:1002F000E41AA2BF01EB0451294330BD6FEA0404A4
:100300001F3C1CDA0C340EDC04F11404C4F120028E
:1003100020FA04F001FA02F340EA030021FA04F3A0
:1003200045EA030130BDC4F10C04C4F1200220FAF7
:1003300002F001FA04F340EA0300294630BD21FA35
:1003400004F0294630BD94F0000F83F4801306BFFB
:1003500081F480110134013D4EE77FEA645C18BFEF
:100360007FEA655C29D094EA050F08BF90EA020F86
:1003700005D054EA000C04BF1946104630BD91EA7E
:10038000030F1EBF0021002030BD5FEA545C05D181
:100390004000494128BF41F0004130BD14F58004C0
:1003A0003CBF01F5801130BD01F0004545F0FE4134
:1003B00041F470014FF0000030BD7FEA645C1ABF69
:1003C000194610467FEA655C1CBF0B46024650EAA0
:1003D000013406BF52EA033591EA030F41F40021CC
:1003E00030BD00BF90F0000F04BF0021704730B552
:1003F0004FF4806404F132044FF000054FF0000127
:1004000050E700BF90F0000F04BF0021704730B5E7
:100410004FF4806404F1320410F0004548BF4042BC
:100420004FF000013EE700BF42004FEAE2014FEA11
:1004300031014FEA02701FBF12F07F4393F07F4FEC
:1004400081F06051704732F07F4208BF704793F0EF
:100450007F4F04BF41F40021704730B54FF4607402
:1004600001F0004521F000411CE700BF50EA010205
:1004700008BF704730B54FF000050AE050EA0102AE
:1004800008BF704730B511F0004502D5404261EB1E
:1004900041014FF4806404F132045FEA915C3FF45F
:1004A000D8AE4FF003025FEADC0C18BF03325FEAFC
:1004B000DC0C18BF033202EBDC02C2F1200300FAAD
:1004C00003FC20FA02F001FA03FE40EA0E0021FAD2
:1004D00002F11444BDE600BF70B54FF0FF0C4CF4C0
:1004E000E06C1CEA11541DBF1CEA135594EA0C0F72
:1004F00095EA0C0F00F0DEF82C4481EA030621EAAD
:100500004C5123EA4C5350EA013518BF52EA0335E7
:1005100041F4801143F4801338D0A0FB02CE4FF099
:100520000005E1FB02E506F00042E0FB03E54FF0C9
:100530000006E1FB03569CF0000F18BF4EF0010EC1
:10054000A4F1FF04B6F5007F64F5407404D25FEABD
:100550004E0E6D4146EB060642EAC62141EA555170
:100560004FEAC52040EA5E504FEACE2EB4F1FD0CB2
:1005700088BFBCF5E06F1ED8BEF1004F08BF5FEA30
:10058000500E50F1000041EB045170BD06F00046E2
:1005900046EA010140EA020081EA0301B4EB5C048F
:1005A000C2BFD4EB0C0541EA045170BD41F4801187
:1005B0004FF0000E013C00F3AB8014F1360FDEBFAC
:1005C000002001F0004170BDC4F10004203C35DA88
:1005D0000C341BDC04F11404C4F1200500FA05F30B
:1005E00020FA04F001FA05F240EA020001F00042AC
:1005F00021F0004110EBD37021FA04F642EB060122
:100600005EEA430E08BF20EAD37070BDC4F10C044B
:10061000C4F1200500FA04F320FA05F001FA04F20F
:1006200040EA020001F0004110EBD37041F10001FB
:100630005EEA430E08BF20EAD37070BDC4F1200506
:1006400000FA05F24EEA020E20FA04F301FA05F26E
:1006500043EA020321FA04F001F0004121FA04F216
:1006600020EA020000EBD3705EEA430E08BF20EAE6
:10067000D37070BD94F0000F0FD101F00046400020
:1006800041EB010111F4801F08BF013CF7D041EAA2
:10069000060195F0000F18BF704703F000465200A6
:1006A00043EB030313F4801F08BF013DF7D043EA77
:1006B0000603704794EA0C0F0CEA135518BF95EA2D
:1006C0000C0F0CD050EA410618BF52EA4306D1D1B4
:1006D00081EA030101F000414FF0000070BD50EAD3
:1006E000410606BF1046194652EA430619D094EA5D
:1006F0000C0F02D150EA013613D195EA0C0F05D147
:1007000052EA03361CBF104619460AD181EA03019A
:1007100001F0004141F0FE4141F470014FF0000052
:1007200070BD41F0FE4141F4780170BD70B54FF0ED
:10073000FF0C4CF4E06C1CEA11541DBF1CEA13556D
:1007400094EA0C0F95EA0C0F00F0A7F8A4EB05044F
:1007500081EA030E52EA03354FEA013100F0888046
:100760004FEA03334FF0805545EA131343EA12630F
:100770004FEA022245EA111545EA10654FEA0026C4
:100780000EF000419D4208BF964244F1FD0404F57D
:10079000407402D25B084FEA3202B61A65EB0305D9
:1007A0005B084FEA32024FF480104FF4002CB6EB96
:1007B000020E75EB030E22BFB61A754640EA0C0016
:1007C0005B084FEA3202B6EB020E75EB030E22BF56
:1007D000B61A754640EA5C005B084FEA3202B6EB97
:1007E000020E75EB030E22BFB61A754640EA9C0056
:1007F0005B084FEA3202B6EB020E75EB030E22BF26
:10080000B61A754640EADC0055EA060E18D04FEAE3
:10081000051545EA16754FEA06164FEAC30343EA83
:1008200052734FEAC2025FEA1C1CC0D111F4801F50
:100830000BD141EA00014FF000004FF0004CB6E749
:1008400011F4801F04BF01430020B4F1FD0C88BFE8
:10085000BCF5E06F3FF6AFAEB5EB030C04BFB6EBF3
:10086000020C5FEA500C50F1000041EB045170BDE6
:100870000EF0004E4EEA113114EB5C04C2BFD4EB13
:100880000C0541EA045170BD41F480114FF0000E97
:10089000013C90E645EA060E8DE60CEA135594EA13
:1008A0000C0F08BF95EA0C0F3FF43BAF94EA0C0F16
:1008B0000AD150EA01347FF434AF95EA0C0F7FF48B
:1008C00025AF104619462CE795EA0C0F06D152EADF
:1008D00003353FF4FDAE1046194622E750EA4106C3
:1008E00018BF52EA43067FF4C5AE50EA41047FF4D4
:1008F0000DAF52EA43057FF4EBAE12E74FF0FF3C39
:1009000006E000BF4FF0010C02E000BF4FF0010C09
:100910004DF804CD4FEA410C7FEA6C5C4FEA430C82
:1009200018BF7FEA6C5C1BD001B050EA410C0CBFD1
:1009300052EA430C91EA030F02BF90EA020F002033
:10094000704710F1000F91EA030F58BF994208BF9A
:1009500090422CBFD8176FEAE37040F00100704757
:100960004FEA410C7FEA6C5C02D150EA013C07D1AE
:100970004FEA430C7FEA6C5CD6D152EA033CD3D0F9
:100980005DF8040B704700BF8446104662468C46F3
:100990001946634600E000BF01B5FFF7B7FF002826
:1009A00048BF10F1000F01BD4DF808EDFFF7F4FF4F
:1009B0000CBF012000205DF808FB00BF4DF808EDDA
:1009C000FFF7EAFF34BF012000205DF808FB00BFFD
:1009D0004DF808EDFFF7E0FF94BF012000205DF81F
:1009E00008FB00BF4DF808EDFFF7CEFF94BF0120D4
:1009F00000205DF808FB00BF4DF808EDFFF7C4FFCD
:100A000034BF012000205DF808FB00BF4FEA410C15
:100A10007FEA6C5C02D150EA013C0AD14FEA430CF8
:100A20007FEA6C5C02D152EA033C02D14FF0000035
:100A300070474FF0010070474FEA410212F5001273
:100A400015D211D56FF47873B3EB625212D94FEA15
:100A5000C12343F0004343EA505311F0004F23FAFF
:100A600002F018BF404270474FF00000704750EA54
:100A7000013005D111F0004008BF6FF00040704711
:100A80004FF00000704700BF80F0004002E000BF60
:100A900081F0004142001FBF5FEA410392EA030F69
:100AA0007FEA226C7FEA236C6AD04FEA1262D2EBB3
:100AB0001363C1BFD218414048404140B8BF5B42B8
:100AC000192B88BF704710F0004F40F4000020F051
:100AD0007F4018BF404211F0004F41F4000121F067
:100AE0007F4118BF494292EA030F3FD0A2F10102B1
:100AF00041FA03FC10EB0C00C3F1200301FA03F1EF
:100B000000F0004302D5494260EB4000B0F5000F11
:100B100013D3B0F1807F06D340084FEA310102F1D0
:100B20000102FE2A51D2B1F1004F40EBC25008BF82
:100B300020F0010040EA03007047490040EB00004C
:100B4000013A28BFB0F5000FEDD2B0FA80FCACF14D
:100B5000080CB2EB0C0200FA0CF0AABF00EBC2507A
:100B600052421843BCBFD0401843704792F0000F68
:100B700081F4000106BF80F400000132013BB5E7BB
:100B80004FEA41037FEA226C18BF7FEA236C21D031
:100B900092EA030F04D092F0000F08BF0846704796
:100BA00090EA010F1CBF0020704712F07F4F04D164
:100BB000400028BF40F00040704712F100723CBF77
:100BC00000F50000704700F0004343F0FE4040F4A1
:100BD000000070477FEA226216BF08467FEA23635F
:100BE0000146420206BF5FEA412390EA010F40F44A
:100BF000800070474FF0000304E000BF10F0004396
:100C000048BF40425FEA000C08BF704743F096437C
:100C100001464FF000001CE050EA010208BF704797
:100C20004FF000030AE000BF50EA010208BF70471E
:100C300011F0004302D5404261EB41015FEA010C33
:100C400002BF84460146002043F0B64308BFA3F12B
:100C50008053A3F50003BCFA8CF2083AA3EBC2530D
:100C600010DB01FA02FC634400FA02FCC2F120022C
:100C7000BCF1004F20FA02F243EB020008BF20F063
:100C80000100704702F1200201FA02FCC2F12002C9
:100C900050EA4C0021FA02F243EB020008BF20EABE
:100CA000DC7070474FF0FF0C1CEAD0521EBF1CEAEC
:100CB000D15392EA0C0F93EA0C0F6FD01A4480EADA
:100CC000010C400218BF5FEA41211ED04FF00063C3
:100CD00043EA501043EA5111A0FB01310CF00040EF
:100CE000B1F5000F3EBF490041EAD3715B0040EA15
:100CF000010062F17F02FD2A1DD8B3F1004F40EBE5
:100D0000C25008BF20F00100704790F0000F0CF0B7
:100D1000004C08BF49024CEA502040EA51207F3A7B
:100D2000C2BFD2F1FF0340EAC250704740F4000056
:100D30004FF00003013A5DDC12F1190FDCBF00F047
:100D400000407047C2F10002410021FA02F1C2F1F5
:100D5000200200FA02FC5FEA310040F1000053EA91
:100D60004C0308BF20EADC70704792F0000F00F0DF
:100D7000004C02BF400010F4000F013AF9D040EAE5
:100D80000C0093F0000F01F0004C02BF490011F479
:100D9000000F013BF9D041EA0C018FE70CEAD15377
:100DA00092EA0C0F18BF93EA0C0F0AD030F0004CF7
:100DB00018BF31F0004CD8D180EA010000F00040AB
:100DC000704790F0000F17BF90F0004F084691F069
:100DD000000F91F0004F14D092EA0C0F01D14202A3
:100DE0000FD193EA0C0F03D14B0218BF084608D16C
:100DF00080EA010000F0004040F0FE4040F40000B6
:100E0000704740F0FE4040F4400070474FF0FF0C48
:100E10001CEAD0521EBF1CEAD15392EA0C0F93EA8F
:100E20000C0F69D0A2EB030280EA010C49024FEAE1
:100E3000402037D04FF0805343EA111143EA10139A
:100E40000CF000408B4238BF5B0042F17D024FF452
:100E5000000C8B4224BF5B1A40EA0C00B3EB510F2D
:100E600024BFA3EB510340EA5C00B3EB910F24BF16
:100E7000A3EB910340EA9C00B3EBD10F24BFA3EB9B
:100E8000D10340EADC001B0118BF5FEA1C1CE0D163
:100E9000FD2A3FF650AF8B4240EBC25008BF20F016
:100EA000010070470CF0004C4CEA50207F32C2BF6A
:100EB000D2F1FF0340EAC250704740F400004FF007
:100EC0000003013A37E792F0000F00F0004C02BF38
:100ED000400010F4000F013AF9D040EA0C0093F002
:100EE000000F01F0004C02BF490011F4000F013B5C
:100EF000F9D041EA0C0195E70CEAD15392EA0C0FC4
:100F000008D142027FF47DAF93EA0C0F7FF470AFFB
:100F1000084676E793EA0C0F04D14B023FF44CAF3E
:100F200008466EE730F0004C18BF31F0004CCAD1D3
:100F300030F000427FF45CAF31F000437FF43CAF0F
:100F40005FE700BF4FF0FF3C06E000BF4FF0010C31
:100F500002E000BF4FF0010C4DF804CD4FEA400213
:100F60004FEA41037FEA226C18BF7FEA236C11D05D
:100F700001B052EA530C18BF90EA010F58BFB2EB10
:100F8000030088BFC81738BF6FEAE17018BF40F090
:100F9000010070477FEA226C02D15FEA402C05D144
:100FA0007FEA236CE4D15FEA412CE1D05DF8040BC9
:100FB000704700BF844608466146FFE70FB5FFF75C
:100FC000C9FF002848BF10F1000F0FBD4DF808ED14
:100FD000FFF7F4FF0CBF012000205DF808FB00BF05
:100FE0004DF808EDFFF7EAFF34BF012000205DF85F
:100FF00008FB00BF4DF808EDFFF7E0FF94BF0120AC
:1010000000205DF808FB00BF4DF808EDFFF7D2FFA8
:1010100094BF012000205DF808FB00BF4DF808EDEB
:10102000FFF7C8FF34BF012000205DF808FB00BFB8
:101030004FEA40024FEA41037FEA226C02D15FEAA5
:10104000402C08D17FEA236C02D15FEA412C02D107
:101050004FF0000070474FF00100704780B588B036
:1010600000AF07F1100300221A605A609A60DA603C
:10107000274B9B69264A43F010039361244B9B69DD
:1010800003F01003FB60FB68214B9B69204A43F08F
:10109000200393611E4B9B6903F02003BB60BB6878
:1010A0001B4B9B691A4A43F004039361184B9B69DD
:1010B00003F004037B607B6800224FF40051154865
:1010C00000F07AFF00221021134800F075FF4FF462
:1010D00000533B6101237B610023BB610223FB6161
:1010E00007F1100319460B4800F0E2FD10233B61A5
:1010F00001237B610023BB610223FB6107F1100325
:101100001946054800F0D4FD00BF2037BD4680BD1C
:1011100000100240001001400008014080B588B076
:1011200002AFF860B9607A607B807B88012B1BD1AD
:101130004FF0FF330122B968164801F0E9FB03467E
:10114000FB75FB7D002B01D002231EE04FF0FF3327
:10115000012279680F4801F01FFD0346FB75FB7DF6
:10116000002B11D0022310E07B884FF0FF32009259
:101170007A68B968074801F028FE0346FB75FB7DD5
:10118000002B01D0022300E0002318461837BD468B
:1011900080BD00BF2002002080B582B000AF786023
:1011A0007B6858697B689B699BB20022194600F0F6
:1011B00003FF00BF0837BD4680BD80B582B000AFD9
:1011C00078607B6858697B689B699BB201221946ED
:1011D00000F0F2FE00BF0837BD4680BD80B582B08A
:1011E00000AF7860786800F05BFC00BF0837BD4650
:1011F00080BD000080B584B000AFF860B9607A604F
:101200007B689AB24FF0FF33B968044802F0E1F806
:101210007B6818461037BD4680BD00BF7C020020A9
:10122000B0B58EB004AF764803F0A8FD754B3C46D0
:101230001D460FCD0FC42B6823603946724B0293B5
:10124000724B0193012300931023714A714802F0FD
:10125000A6FA034687F8233097F82330002B06D0F0
:1012600097F8233019466C4803F020FDBFE06B4827
:1012700003F084FD4FF00002694BCDE900235EA32B
:10128000D3E90023674803F011FD0021614802F013
:1012900047FC654803F072FD00237B62A0E07B6A97
:1012A00001331946614803F001FD07F116031946A1
:1012B000584802F046FD034687F8233097F823305C
:1012C000002B07D1FB8A1946FB8A1A46584803F0BF
:1012D000EDFC14E097F82330032B05D1FB8A194667
:1012E000544803F0E3FC0AE097F8233019465248CB
:1012F00003F0DCFC4FF47A7000F0D2FB6DE007F1F4
:1013000018031946434802F0E3FD034687F82330EB
:1013100097F82330002B09D1BB691846FFF784F8F2
:1013200002460B46454803F0C1FC05E097F8233020
:101330001946434803F0BAFC07F11C031946354827
:1013400002F090FD034687F8233097F82330002BF6
:1013500009D1FB691846FFF767F802460B46394882
:1013600003F0A4FC05E097F823301946364803F053
:101370009DFC07F115031946264802F05CFD034663
:1013800087F8233097F82330002B19D17B7D002B71
:1013900012D07B7D1C467B7D184602F0B3FE0346CF
:1013A0001A462146294803F081FC1A4802F057FCEE
:1013B000274803F0E3FC09E0264803F0DFFC05E0E2
:1013C00097F823301946244803F070FC234803F0B3
:1013D000D5FC4FF4FA6000F063FB7B6A01337B625B
:1013E0007B6A092B7FF75BAF1D4803F0C7FC2837EA
:1013F000BD46B0BDAFF300800000000000E07A40C1
:10140000A06D00082C7000080000C8420000D743FF
:1014100000080140F0010020D06D0008046E0008B3
:1014200000005940286E0008646E00087C6E0008B9
:10143000986E0008B86E0008D86E0008006F0008AB
:10144000186F0008486F0008606F0008906F000870
:10145000AC6F0008C06F0008D86F00080C7000085F
:101460001070000880B582B000AF00F0B7FA00F04D
:1014700045F8FFF7F3FD00F015FA00F089F817487A
:1014800003F07CFC01F070F903461946144803F0A0
:101490000DFC144A1449154803F008FCFFF7C0FE80
:1014A0003B461946124802F0DDFC0346FB71FB790E
:1014B000002B09D13B681846FEF7B6FF02460B46E3
:1014C0000C4803F0F3FB04E0FB7919460A4803F0EB
:1014D000EDFB41F2883000F0E3FAE1E740700008EC
:1014E0006C70000884700008907000089C70000800
:1014F000F0010020B0700008D070000880B590B0F6
:1015000000AF07F1180328220021184603F016FD4A
:101510003B1D00221A605A609A60DA601A6101234A
:10152000BB614FF48033FB6100233B620123BB624C
:1015300002237B634FF48033BB630023FB6307F11B
:101540001803184600F050FD0346002B01D000F0B0
:1015500018F80F237B600223BB600023FB6000238D
:101560003B6100237B613B1D0021184600F0BEFF5C
:101570000346002B01D000F004F800BF4037BD4601
:1015800080BD80B400AF72B600BF00BFFDE70000B1
:1015900080B500AF174B184A1A60164B4FF4827291
:1015A0005A60144B00229A60124B0022DA60114BF1
:1015B00000221A610F4B01225A610E4B4FF4007248
:1015C0009A610C4B1022DA610A4B00221A62094B15
:1015D00000225A62074B00229A62064B0A22DA6204
:1015E000044801F011F90346002B01D0FFF7C9FFB1
:1015F00000BF80BD200200200030014080B588B0CF
:1016000000AF786007F1100300221A605A609A60F8
:10161000DA607B681B681B4A93422FD11A4B9B6987
:10162000194A43F480539361174B9B6903F4805329
:10163000FB60FB68144B9B69134A43F004039361FE
:10164000114B9B6903F00403BB60BB68A0233B61A3
:1016500002237B610323FB6107F1100319460B484A
:1016600000F026FB40233B6100237B610023BB612C
:1016700007F110031946054800F01AFB00BF203798
:10168000BD4680BD0030014000100240000801400E
:1016900080B485B000AF154B9B69144A43F0010339
:1016A0009361124B9B6903F00103BB60BB680F4B56
:1016B000DB690E4A43F08053D3610C4BDB6903F0C6
:1016C00080537B607B680A4B5B68FB60FB6823F0A0
:1016D000E063FB60FB6843F00073FB60044AFB6857
:1016E000536000BF1437BD4680BC704700100240F5
:1016F0000000014080B400AF00BFFDE780B400AF40
:1017000000BFFDE780B400AF00BFFDE780B400AFCD
:1017100000BFFDE780B400AF00BFFDE780B400AFBD
:1017200000BFBD4680BC704780B400AF00BFBD465F
:1017300080BC704780B400AF00BFBD4680BC70471E
:1017400080B500AF00F090F900BF80BD80B400AF5D
:1017500001231846BD4680BC704780B582B000AFFB
:101760007860396003F03CFC034616221A604FF0A3
:10177000FF3318460837BD4680BD80B582B000AF44
:1017800078604FF0FF317868FFF7E7FF00BFFDE7B3
:1017900080B586B000AFF860B9607A6000237B61E5
:1017A0000AE0AFF300800146BB685A1CBA60CAB2B7
:1017B0001A707B6901337B617A697B689A42F0DB3E
:1017C0007B6818461837BD4680BD80B483B000AF33
:1017D00078604FF0FF3318460C37BD4680BC704729
:1017E00080B483B000AF786039603B684FF400523A
:1017F0005A60002318460C37BD4680BC704780B441
:1018000083B000AF7860012318460C37BD4680BC1A
:10181000704780B485B000AFF860B9607A6000238B
:1018200018461437BD4680BC7047000080B586B0AE
:1018300000AF7860144A154BD31A7B617B693B611A
:10184000134B1B68002B02D1114B124A1A60104B2C
:101850001A687B6813443A699A4207D203F0C0FBC6
:1018600003460C221A604FF0FF3309E0084B1B6857
:10187000FB60074B1A687B681344054A1360FB68DA
:1018800018461837BD4680BD0050002000040000F7
:10189000780200201805002080B400AF00BFBD46CC
:1018A00080BC704780B500AF114B124A1A60104BD4
:1018B0004FF4E1325A600E4B00229A600C4B00222A
:1018C000DA600B4B00221A61094B0C225A61084B5B
:1018D00000229A61064B0022DA61054801F029FDD9
:1018E0000346002B01D0FFF74CFE00BF80BD00BFB8
:1018F0007C0200200038014080B588B000AF7860DD
:1019000007F1100300221A605A609A60DA607B685F
:101910001B681C4A934231D11B4B9B691A4A43F402
:1019200080439361184B9B6903F48043FB60FB6821
:10193000154B9B69144A43F004039361124B9B6956
:1019400003F00403BB60BB684FF400733B610223E8
:101950007B610323FB6107F1100319460B4800F07C
:10196000A7F94FF480633B6100237B610023BB61D7
:1019700007F110031946054800F09AF900BF203717
:10198000BD4680BD00380140001002400008014003
:10199000FFF782FF0B480C490C4A002302E0D458A1
:1019A000C4500433C4188C42F9D3094A094C0023AB
:1019B00001E013600432A242FBD303F017FBFFF7F0
:1019C00051FD704700000020D40100203C75000844
:1019D000D401002014050020FEE7000080B500AF10
:1019E000084B1B68074A43F010031360032000F004
:1019F0002BF90F2000F008F8FFF74AFE00231846E5
:101A000080BD00BF0020024080B582B000AF78608A
:101A1000124B1A68124B1B7819464FF47A73B3FBBA
:101A2000F1F3B2FBF3F3184600F035F90346002B4F
:101A300001D001230EE07B680F2B0AD800227968C1
:101A40004FF0FF3000F00BF9064A7B68136000236B
:101A500000E0012318460837BD4680BD0000002085
:101A6000080000200400002080B400AF054B1B7864
:101A70001A46054B1B681344034A136000BFBD465A
:101A800080BC704708000020C402002080B400AF72
:101A9000024B1B681846BD4680BC7047C40200203C
:101AA00080B584B000AF7860FFF7F0FFB8607B6866
:101AB000FB60FB68B3F1FF3F05D00A4B1B781A4669
:101AC000FB681344FB6000BFFFF7E0FF0246BB6802
:101AD000D31AFA689A42F7D800BF00BF1037BD4644
:101AE00080BD00BF0800002080B485B000AF7860E2
:101AF0007B6803F00703FB600C4BDB68BB60BA68D4
:101B00004FF6FF031340BB60FB681A02BB68134328
:101B100043F0BF6343F40033BB60044ABB68D36047
:101B200000BF1437BD4680BC704700BF00ED00E029
:101B300080B400AF044BDB681B0A03F007031846B0
:101B4000BD4680BC704700BF00ED00E080B483B0AC
:101B500000AF03463960FB7197F90730002B0ADBB1
:101B60003B68DAB20C4997F907301201D2B20B4444
:101B700083F800230AE03B68DAB20849FB7903F0F6
:101B80000F03043B1201D2B20B441A7600BF0C378C
:101B9000BD4680BC704700BF00E100E000ED00E002
:101BA00080B489B000AFF860B9607A60FB6803F078
:101BB0000703FB61FB69C3F10703042B28BF042360
:101BC000BB61FB690433062B02D9FB69033B00E0D0
:101BD00000237B614FF0FF32BB6902FA03F3DA4363
:101BE000BB681A407B699A404FF0FF317B6901FA6C
:101BF00003F3D9437B680B40134318462437BD4693
:101C000080BC704780B582B000AF78607B68013BD4
:101C1000B3F1807F01D301230FE00A4A7B68013BC7
:101C200053600F214FF0FF30FFF790FF054B00226C
:101C30009A60044B07221A60002318460837BD46F5
:101C400080BD00BF10E000E080B582B000AF7860DA
:101C50007868FFF749FF00BF0837BD4680BD80B5F3
:101C600086B000AF0346B9607A60FB7300237B61E6
:101C7000FFF75EFF78617A68B9687869FFF790FFCF
:101C8000024697F90F3011461846FFF75FFF00BF75
:101C90001837BD4680BD80B582B000AF78607868E7
:101CA000FFF7B0FF034618460837BD4680BD000069
:101CB00080B48BB000AF7860396000237B62002372
:101CC0003B6269E101227B6A02FA03F3FB613B6834
:101CD0001B68FA691340BB61BA69FB699A4240F01C
:101CE00058813B685B689A4A93425ED0984A934217
:101CF00075D8984A934258D0964A93426FD8964ADC
:101D0000934252D0944A934269D8944A93424CD019
:101D1000924A934263D8924A934246D0904A934261
:101D20005DD8122B2AD8122B59D801A252F823F0D1
:101D3000AB1D0008851D0008971D0008D91D00086F
:101D4000DF1D0008DF1D0008DF1D0008DF1D000883
:101D5000DF1D0008DF1D0008DF1D0008DF1D000873
:101D6000DF1D0008DF1D0008DF1D0008DF1D000863
:101D7000DF1D00088D1D0008A11D0008794A93424F
:101D800013D02CE03B68DB683B6229E03B68DB68F2
:101D900004333B6224E03B68DB6808333B621FE0AE
:101DA0003B68DB680C333B621AE03B689B68002BA6
:101DB00002D104233B6213E03B689B68012B05D1F1
:101DC00008233B627B68FA691A6109E008233B62D9
:101DD0007B68FA695A6103E000233B6200E000BFC0
:101DE000BB69FF2B01D87B6801E07B6804337B6112
:101DF000BB69FF2B02D87B6A9B0002E07B6A083B31
:101E00009B003B617B691A680F213B6901FA03F370
:101E1000DB431A40396A3B6901FA03F31A437B69D1
:101E20001A603B685B6803F08053002B00F0B180C0
:101E30004D4B9B694C4A43F0010393614A4B9B69AC
:101E400003F00103BB60BB68484A7B6A9B0802330E
:101E500052F82330FB607B6A03F003039B000F22E0
:101E600002FA03F3DB43FA681340FB607B68404AE5
:101E7000934213D07B683F4A93420DD07B683E4A21
:101E8000934207D07B683D4A934201D1032306E089
:101E9000042304E0022302E0012300E000237A6A25
:101EA00002F0030292009340FA681343FB602F494B
:101EB0007B6A9B080233FA6841F823203B685B6821
:101EC00003F48013002B06D02D4B9A682C49BB6974
:101ED00013438B6006E02A4B9A68BB69DB432849B1
:101EE00013408B603B685B6803F40013002B06D043
:101EF000234BDA682249BB691343CB6006E0204BD1
:101F0000DA68BB69DB431E491340CB603B685B6802
:101F100003F40033002B06D0194B5A681849BB69EB
:101F200013434B6006E0164B5A68BB69DB43144908
:101F300013404B603B685B6803F48033002B21D077
:101F40000F4B1A680E49BB6913430B6021E000BFB9
:101F5000000032100000311000002210000021109B
:101F6000000012100000111000100240000001409B
:101F700000080140000C0140001001400014014025
:101F8000000401400B4B1A68BB69DB43094913404D
:101F90000B607B6A01337B623B681A687B6A22FABA
:101FA00003F3002B7FF48EAE00BF00BF2C37BD467D
:101FB00080BC70470004014080B483B000AF7860FB
:101FC0000B467B8013467B707B78002B03D07A888E
:101FD0007B681A6103E07B881A047B681A6100BF82
:101FE0000C37BD4680BC704780B586B000AF7860C6
:101FF0007B68002B01D1012372E27B681B6803F030
:102000000103002B00F08780924B5B6803F00C0308
:10201000042B0CD08F4B5B6803F00C03082B12D100
:102020008C4B5B6803F48033B3F5803F0BD1894B55
:102030001B6803F40033002B6CD07B685B68002BBB
:1020400068D101234CE27B685B68B3F5803F06D121
:10205000804B1B687F4A43F4803313602EE07B681B
:102060005B68002B0CD17B4B1B687A4A23F48033CE
:102070001360784B1B68774A23F4802313601DE0BC
:102080007B685B68B3F5A02F0CD1724B1B68714A5B
:1020900043F4802313606F4B1B686E4A43F4803314
:1020A00013600BE06B4B1B686A4A23F480331360A8
:1020B000684B1B68674A23F4802313607B685B6866
:1020C000002B13D0FFF7E2FC386108E0FFF7DEFCDD
:1020D00002463B69D31A642B01D9032300E25D4B0E
:1020E0001B6803F40033002BF0D014E0FFF7CEFCA4
:1020F000386108E0FFF7CAFC02463B69D31A642B3B
:1021000001D90323ECE1534B1B6803F40033002B8C
:10211000F0D100E000BF7B681B6803F00203002BD6
:1021200063D04C4B5B6803F00C03002B0BD0494B86
:102130005B6803F00C03082B1CD1464B5B6803F46F
:102140008033002B16D1434B1B6803F00203002B96
:1021500005D07B681B69012B01D00123C0E13D4BF9
:102160001B6823F0F8027B685B69DB003949134385
:102170000B603AE07B681B69002B20D0364B0122B4
:102180001A60FFF783FC386108E0FFF77FFC024626
:102190003B69D31A022B01D90323A1E12D4B1B6804
:1021A00003F00203002BF0D02A4B1B6823F0F80247
:1021B0007B685B69DB00274913430B6015E0264B06
:1021C00000221A60FFF762FC386108E0FFF75EFC4E
:1021D00002463B69D31A022B01D9032380E11D4B30
:1021E0001B6803F00203002BF0D17B681B6803F02F
:1021F0000803002B3AD07B689B69002B19D0174B42
:1022000001221A60FFF742FC386108E0FFF73EFC4C
:1022100002463B69D31A022B01D9032360E10D4B1F
:102220005B6A03F00203002BF0D0012000F0CEFA2D
:102230001CE00A4B00221A60FFF728FC38610FE00F
:10224000FFF724FC02463B69D31A022B08D903236B
:1022500046E100BF001002400000424280044242BA
:10226000924B5B6A03F00203002BE9D17B681B6889
:1022700003F00403002B00F0A6800023FB758B4BBA
:10228000DB6903F08053002B0DD1884BDB69874A53
:1022900043F08053D361854BDB6903F08053BB600F
:1022A000BB680123FB75824B1B6803F48073002B12
:1022B00018D17F4B1B687E4A43F480731360FFF78D
:1022C000E5FB386108E0FFF7E1FB02463B69D31A02
:1022D000642B01D9032303E1754B1B6803F480735E
:1022E000002BF0D07B68DB68012B06D16F4B1B6A9B
:1022F0006E4A43F0010313622DE07B68DB68002B1C
:102300000CD16A4B1B6A694A23F001031362674BC5
:102310001B6A664A23F0040313621CE07B68DB68D7
:10232000052B0CD1614B1B6A604A43F00403136216
:102330005E4B1B6A5D4A43F0010313620BE05B4B8B
:102340001B6A5A4A23F001031362584B1B6A574A0F
:1023500023F0040313627B68DB68002B15D0FFF7C2
:1023600095FB38610AE0FFF791FB02463B69D31AFF
:1023700041F28832934201D90323B1E04B4B1B6AEF
:1023800003F00203002BEED014E0FFF77FFB38616F
:102390000AE0FFF77BFB02463B69D31A41F2883221
:1023A000934201D903239BE0404B1B6A03F00203D5
:1023B000002BEED1FB7D012B05D13C4BDB693B4A69
:1023C00023F08053D3617B68DB69002B00F08780AA
:1023D000364B5B6803F00C03082B61D07B68DB692C
:1023E000022B46D1334B00221A60FFF74FFB3861B6
:1023F00008E0FFF74BFB02463B69D31A022B01D9D9
:1024000003236DE0294B1B6803F00073002BF0D110
:102410007B681B6AB3F5803F08D1244B5B6823F4CB
:1024200000327B689B68214913434B601F4B5B68FC
:1024300023F474127B68196A7B685B6A0B431B493F
:1024400013434B601B4B01221A60FFF71FFB3861DF
:1024500008E0FFF71BFB02463B69D31A022B01D9A8
:1024600003233DE0114B1B6803F00073002BF0D0F9
:1024700035E0104B00221A60FFF708FB386108E0D6
:10248000FFF704FB02463B69D31A022B01D9032351
:1024900026E0064B1B6803F00073002BF0D11EE012
:1024A0007B68DB69012B07D1012319E00010024092
:1024B00000700040600042420B4B5B68FB60FB68B1
:1024C00003F480327B681B6A9A4206D1FB6803F4EE
:1024D00070127B685B6A9A4201D0012300E00023FE
:1024E00018461837BD4680BD0010024080B584B044
:1024F00000AF786039607B68002B01D10123D0E008
:102500006A4B1B6803F007033A689A4210D9674B7D
:102510001B6823F0070265493B6813430B60634B5C
:102520001B6803F007033A689A4201D00123B8E020
:102530007B681B6803F00203002B20D07B681B68BC
:1025400003F00403002B05D0594B5B68584A43F451
:10255000E06353607B681B6803F00803002B05D021
:10256000534B5B68524A43F460535360504B5B6873
:1025700023F0F0027B689B684D4913434B607B68F6
:102580001B6803F00103002B40D07B685B68012BC4
:1025900007D1474B1B6803F40033002B15D10123EF
:1025A0007FE07B685B68022B07D1414B1B6803F01F
:1025B0000073002B09D1012373E03D4B1B6803F02E
:1025C0000203002B01D101236BE0394B5B6823F040
:1025D00003027B685B68364913434B60FFF756FA8A
:1025E000F8600AE0FFF752FA0246FB68D31A41F29C
:1025F0008832934201D9032353E02D4B5B6803F0EB
:102600000C027B685B689B009A42EBD1274B1B68EE
:1026100003F007033A689A4210D2244B1B6823F058
:10262000070222493B6813430B60204B1B6803F0F1
:1026300007033A689A4201D0012332E07B681B68A5
:1026400003F00403002B08D0194B5B6823F4E0620D
:102650007B68DB68164913434B607B681B6803F09B
:102660000803002B09D0124B5B6823F460527B688F
:102670001B69DB000E4913434B6000F021F8024652
:102680000B4B5B681B0903F00F030A49CB5C22FA72
:1026900003F3094A1360094B1B681846FFF7B4F9A6
:1026A000002318461037BD4680BD00BF0020024001
:1026B0000010024088710008000000200400002083
:1026C00080B487B000AF0023FB600023BB60002311
:1026D0007B6100237B6000233B611E4B5B68FB60DA
:1026E000FB6803F00C03042B02D0082B03D027E077
:1026F000194B3B6127E0FB689B0C03F00F03174A63
:10270000D35C7B60FB6803F48033002B10D0114B4B
:102710005B685B0C03F00103114AD35CBB607B6810
:102720000D4A03FB02F2BB68B2FBF3F37B6104E0EA
:102730007B680C4A02FB03F37B617B693B6102E02F
:10274000054B3B6100BF3B6918461C37BD4680BC4A
:10275000704700BF0010024000127A00A07100080C
:10276000B071000800093D0080B400AF024B1B6847
:102770001846BD4680BC70470000002080B500AF01
:10278000FFF7F2FF0246054B5B681B0A03F00703E5
:102790000349CB5C22FA03F3184680BD00100240C7
:1027A0009871000880B500AFFFF7DEFF0246054BC9
:1027B0005B68DB0A03F007030349CB5C22FA03F3EF
:1027C000184680BD001002409871000880B485B0A2
:1027D00000AF78600A4B1B680A4AA2FB03235B0A1E
:1027E0007A6802FB03F3FB6000BFFB685A1EFA60C5
:1027F000002BF9D100BF00BF1437BD4680BC704725
:1028000000000020D34D621080B582B000AF786028
:102810007B68002B01D1012376E07B685B6A002B8B
:1028200008D17B685B68B3F5827F09D07B680022A2
:10283000DA6105E07B6800221A617B6800225A6138
:102840007B6800229A627B6893F85130DBB2002BE0
:1028500006D17B68002283F850207868FEF7CEFE10
:102860007B68022283F851207B681B681A687B68AA
:102870001B6822F040021A607B685B6803F4827276
:102880007B689B6803F404431A437B68DB6803F4AA
:1028900000631A437B681B6903F002031A437B68D9
:1028A0005B6903F001031A437B689B6903F40073BF
:1028B0001A437B68DB6903F038031A437B681B6AA1
:1028C00003F0800342EA03017B689B6A03F4005231
:1028D0007B681B680A431A607B689B691A0C7B68DB
:1028E0001B6802F004025A607B681B68DA697B6827
:1028F0001B6822F40062DA617B6800225A657B68FB
:10290000012283F85120002318460837BD4680BDB8
:1029100080B588B000AFF860B9603B601346FB80BB
:10292000FFF7B4F8F861FB887B83FB6893F85130BC
:10293000DBB2012B01D002232AE1BB68002B02D0BD
:10294000FB88002B01D1012322E1FB6893F8503072
:10295000012B01D102231BE1FB68012283F85020E7
:10296000FB68032283F85120FB6800225A65FB684C
:10297000BA681A63FB68FA889A86FB68FA88DA866E
:10298000FB6800229A63FB6800229A87FB6800229A
:10299000DA87FB6800225A64FB6800221A64FB682D
:1029A0009B68B3F5004F0FD1FB681B681A68FB6882
:1029B0001B6822F040021A60FB681B681A68FB68FB
:1029C0001B6842F480421A60FB681B681B6803F0B6
:1029D0004003402B07D0FB681B681A68FB681B6824
:1029E00042F040021A60FB68DB68B3F5006F52D119
:1029F000FB685B68002B02D07B8B012B45D1FB6809
:102A00001B6B1A88FB681B68DA60FB681B6B9A1CDF
:102A1000FB681A63FB68DB8E9BB2013B9AB2FB68D2
:102A2000DA8632E0FB681B689B6803F00203022B26
:102A300012D1FB681B6B1A88FB681B68DA60FB68A5
:102A40001B6B9A1CFB681A63FB68DB8E9BB2013B15
:102A50009AB2FB68DA8618E0FFF718F80246FB69BD
:102A6000D31A3A689A4203D83B68B3F1FF3F02D1C8
:102A70003B68002B09D1FB68012283F85120FB68D9
:102A8000002283F85020032382E0FB68DB8E9BB298
:102A9000002BC7D153E0FB685B68002B02D07B8B17
:102AA000012B47D1FB681A6BFB681B680C3312784B
:102AB0001A70FB681B6B5A1CFB681A63FB68DB8E81
:102AC0009BB2013B9AB2FB68DA8633E0FB681B6875
:102AD0009B6803F00203022B13D1FB681A6BFB689F
:102AE0001B680C3312781A70FB681B6B5A1CFB684E
:102AF0001A63FB68DB8E9BB2013B9AB2FB68DA86F5
:102B000018E0FEF7C3FF0246FB69D31A3A689A42FF
:102B100003D83B68B3F1FF3F02D13B68002B09D1DA
:102B2000FB68012283F85120FB68002283F85020C3
:102B300003232DE0FB68DB8E9BB2002BC6D1FA6924
:102B40003968F86800F0C4FB0346002B02D0FB682C
:102B500020225A65FB689B68002B0AD100237B6109
:102B6000FB681B68DB687B61FB681B689B687B619B
:102B70007B69FB68012283F85120FB68002283F8FF
:102B80005020FB685B6D002B01D0012300E0002387
:102B900018462037BD4680BD80B588B002AFF860CA
:102BA000B9603B601346FB80FB6893F85130DBB2A1
:102BB000012B01D0022304E1FB685B68B3F5827F3F
:102BC00012D1FB689B68002B0ED1FB68042283F8AE
:102BD0005120FA883B6800931346BA68B968F868D0
:102BE00000F0F3F80346ECE0FEF750FF7861BB68B5
:102BF000002B02D0FB88002B01D10123E1E0FB6810
:102C000093F85030012B01D10223DAE0FB68012256
:102C100083F85020FB68042283F85120FB680022CF
:102C20005A65FB68BA689A63FB68FA889A87FB68FA
:102C3000FA88DA87FB6800221A63FB6800229A860A
:102C4000FB680022DA86FB6800221A64FB68002217
:102C50005A64FB689B68B3F5004F0FD1FB681B6893
:102C60001A68FB681B6822F040021A60FB681B6848
:102C70001A68FB681B6822F480421A60FB681B68B4
:102C80001B6803F04003402B07D0FB681B681A68E1
:102C9000FB681B6842F040021A60FB68DB68002B8F
:102CA00070D135E0FB681B689B6803F00103012BC2
:102CB00015D1FB681B6803F10C02FB689B6B127853
:102CC000D2B21A70FB689B6B5A1CFB689A63FB6854
:102CD000DB8F9BB2013B9AB2FB68DA8718E0FEF704
:102CE000D5FE02467B69D31A3A689A4203D83B68FC
:102CF000B3F1FF3F02D13B68002B09D1FB680122F1
:102D000083F85120FB68002283F85020032358E009
:102D1000FB68DB8F9BB2002BC4D138E0FB681B68DB
:102D20009B6803F00103012B13D1FB681B68DA6871
:102D3000FB689B6B92B21A80FB689B6B9A1CFB68CA
:102D40009A63FB68DB8F9BB2013B9AB2FB68DA8720
:102D500018E0FEF79BFE02467B69D31A3A689A4256
:102D600003D83B68B3F1FF3F02D13B68002B09D188
:102D7000FB68012283F85120FB68002283F8502071
:102D800003231EE0FB68DB8F9BB2002BC6D17A6960
:102D90003968F86800F04AFA0346002B02D0FB6855
:102DA00020225A65FB68012283F85120FB6800222B
:102DB00083F85020FB685B6D002B01D0012300E0FD
:102DC000002318461837BD4680BD80B58AB000AFD5
:102DD000F860B9607A607B8001237B62FEF756FE63
:102DE0003862FB6893F85130FB77FB685B68BB6126
:102DF0007B88FB82FB7F012B0CD0BB69B3F5827F04
:102E000006D1FB689B68002B02D1FB7F042B01D00D
:102E100002237FE1BB68002B05D07B68002B02D02A
:102E20007B88002B01D1012374E1FB6893F85030BB
:102E3000012B01D102236DE1FB68012283F85020B0
:102E4000FB6893F85130DBB2042B03D0FB680522FA
:102E500083F85120FB6800225A65FB687A689A6300
:102E6000FB687A88DA87FB687A889A87FB68BA6891
:102E70001A63FB687A88DA86FB687A889A86FB6828
:102E800000221A64FB6800225A64FB681B681B68F6
:102E900003F04003402B07D0FB681B681A68FB68EF
:102EA0001B6842F040021A60FB68DB68B3F5006FF4
:102EB0007ED1FB685B68002B02D0FB8A012B6CD1B2
:102EC000FB681B6B1A88FB681B68DA60FB681B6B6E
:102ED0009A1CFB681A63FB68DB8E9BB2013B9AB2BB
:102EE000FB68DA8659E0FB681B689B6803F0020305
:102EF000022B1BD1FB68DB8E9BB2002B16D07B6AAA
:102F0000012B13D1FB681B6B1A88FB681B68DA6006
:102F1000FB681B6B9A1CFB681A63FB68DB8E9BB219
:102F2000013B9AB2FB68DA8600237B62FB681B6870
:102F30009B6803F00103012B19D1FB68DB8F9BB267
:102F4000002B14D0FB681B68DA68FB689B6B92B29D
:102F50001A80FB689B6B9A1CFB689A63FB68DB8F8B
:102F60009BB2013B9AB2FB68DA8701237B62FEF7D2
:102F70008DFD02463B6AD31A3A6B9A420DD83B6BE1
:102F8000B3F1FF3F09D0FB68012283F85120FB68B1
:102F9000002283F850200323BCE0FB68DB8E9BB249
:102FA000002BA0D1FB68DB8F9BB2002B9BD182E072
:102FB000FB685B68002B02D0FB8A012B71D1FB6898
:102FC0001A6BFB681B680C3312781A70FB681B6B5A
:102FD0005A1CFB681A63FB68DB8E9BB2013B9AB2FA
:102FE000FB68DA865DE0FB681B689B6803F0020300
:102FF000022B1CD1FB68DB8E9BB2002B17D07B6AA7
:10300000012B14D1FB681A6BFB681B680C33127818
:103010001A70FB681B6B5A1CFB681A63FB68DB8E1B
:103020009BB2013B9AB2FB68DA8600237B62FB68A5
:103030001B689B6803F00103012B19D1FB68DB8F30
:103040009BB2002B14D0FB681B68DA68FB689B6B93
:10305000D2B21A70FB689B6B5A1CFB689A63FB68C0
:10306000DB8F9BB2013B9AB2FB68DA8701237B625C
:10307000FEF70CFD02463B6AD31A3A6B9A4203D81C
:103080003B6BB3F1FF3F02D13B6B002B09D1FB68D7
:10309000012283F85120FB68002283F8502003238B
:1030A00038E0FB68DB8E9BB2002B9CD1FB68DB8F8A
:1030B0009BB2002B97D13A6A396BF86800F008F997
:1030C0000346002B08D0FB6820225A65FB680022CB
:1030D00083F8502001231DE0FB689B68002B0AD178
:1030E00000233B61FB681B68DB683B61FB681B6876
:1030F0009B683B613B69FB68012283F85120FB68B8
:10310000002283F85020FB685B6D002B01D0012367
:1031100000E0002318462837BD4680BD80B588B042
:1031200000AFF860B9603B601346FB71FEF7AEFC80
:103130000246BB6A9B1A3A681344FB61FEF7A6FC81
:10314000B861394B1B685B011B0DFA6902FB03F385
:103150007B6154E03B68B3F1FF3F50D0FEF796FC33
:103160000246BB69D31AFA699A4202D9FB69002B5D
:103170003DD1FB681B685A68FB681B6822F0E002BF
:103180005A60FB685B68B3F5827F11D1FB689B686E
:10319000B3F5004F04D0FB689B68B3F5806F07D18F
:1031A000FB681B681A68FB681B6822F040021A6003
:1031B000FB689B6AB3F5005F0FD1FB681B681A6858
:1031C000FB681B6822F400521A60FB681B681A68CF
:1031D000FB681B6842F400521A60FB68012283F806
:1031E0005120FB68002283F85020032317E07B69FD
:1031F000002B01D10023FB617B69013B7B61FB68F4
:103200001B689A68BB681340BA689A420CBF0123D6
:103210000023DBB21A46FB799A429BD10023184661
:103220002037BD4680BD00BF0000002080B586B0BD
:1032300002AFF860B9607A60FB685B68B3F5827FC3
:1032400011D1FB689B68B3F5004F04D0FB689B6805
:10325000B3F5806F07D1FB681B681A68FB681B68B1
:1032600022F040021A60FB685B68B3F5827F17D1D9
:10327000FB689B68B3F5806F12D17B680093BB68D5
:1032800000220121F868FFF749FF0346002B1AD0FE
:10329000FB685B6D43F02002FB685A65032313E073
:1032A0007B680093BB6800228021F868FFF736FF37
:1032B0000346002B07D0FB685B6D43F02002FB68E0
:1032C0005A65032300E0002318461037BD4680BD31
:1032D00080B586B002AFF860B9607A607B68009311
:1032E000BB6801220221F868FFF718FF0346002B94
:1032F00007D0FB685B6D43F02002FB685A6503232F
:1033000013E07B680093BB6800228021F868FFF718
:1033100005FF0346002B07D0FB685B6D43F02002DE
:10332000FB685A65032300E0002318461037BD46AA
:1033300080BD80B582B000AF78607B68002B01D182
:10334000012342E07B6893F84130DBB2002B06D1C9
:103350007B68002283F840207868FEF7CDFA7B680E
:10336000242283F841207B681B68DA687B681B682D
:1033700022F40052DA60786800F072F97B681B680A
:103380001A697B681B6822F490421A617B681B688B
:103390005A697B681B6822F02A025A617B681B68A5
:1033A000DA687B681B6842F40052DA607B680022AE
:1033B0005A647B68202283F841207B68202283F8AE
:1033C00042207B6800225A63002318460837BD4616
:1033D00080BD80B58AB002AFF860B9603B6013462B
:1033E000FB8000237B61FB6893F84130DBB2202B2C
:1033F00075D1BB68002B02D0FB88002B01D10123C3
:103400006EE0FB6800225A64FB68212283F84120A9
:10341000FEF73CFB7861FB68FA889A84FB68FA88BF
:10342000DA84FB689B68B3F5805F08D1FB681B6991
:10343000002B04D10023FB61BB68BB6103E0BB68C8
:10344000FB610023BB612EE03B6800937B69002297
:103450008021F86800F048F80346002B05D0FB688F
:10346000202283F8412003233AE0FB69002B0BD193
:10347000BB691B881A46FB681B68C2F308025A60C6
:10348000BB690233BB6107E0FB691A78FB681B6804
:103490005A60FB690133FB61FB68DB8C9BB2013B2B
:1034A0009AB2FB68DA84FB68DB8C9BB2002BCBD131
:1034B0003B6800937B6900224021F86800F014F813
:1034C0000346002B05D0FB68202283F8412003230C
:1034D00006E0FB68202283F84120002300E002235D
:1034E00018462037BD4680BD80B586B000AFF86075
:1034F000B9603B601346FB713BE03B6AB3F1FF3FB1
:1035000037D0FEF7C3FA02463B68D31A3A6A9A42AA
:1035100002D33B6A002B01D103233AE0FB681B680E
:10352000DB6803F00403002B23D0BB68802B20D082
:10353000BB68402B1DD0FB681B681B6803F00803A9
:10354000082B16D100237B61FB681B681B687B611D
:10355000FB681B685B687B617B69F86800F01DF89D
:10356000FB6808225A64FB68002283F8402001238C
:103570000FE0FB681B681A68BB681340BA689A4280
:103580000CBF01230023DBB21A46FB799A42B4D068
:10359000002318461837BD4680BD80B495B000AFF3
:1035A00078607B681B680C337B637B6B53E8003F60
:1035B0003B633B6B23F49073FB647B681B680C33A9
:1035C000FA6C3A64FB63F96B3A6C41E80023BB6325
:1035D000BB6B002BE5D17B681B6814333B623B6AF5
:1035E00053E8003FFB61FB6923F00103BB647B6888
:1035F0001B681433BA6CFA62BB62B96AFA6A41E8B2
:1036000000237B627B6A002BE5D17B681B6B012B5F
:1036100019D17B681B680C33FB60FB6853E8003FE3
:10362000BB60BB6823F010037B647B681B680C33B2
:103630007A6CBA617B617969BA6941E800233B61C0
:103640003B69002BE5D17B68202283F842207B6810
:1036500000221A6300BF5437BD4680BC704700008B
:1036600080B584B000AF78607B681B681B6923F469
:1036700040517B68DA687B681B680A431A617B6883
:103680009A687B681B691A437B685B691343BB605C
:103690007B681B68DB6823F4B05323F00C037A6863
:1036A0001268B9680B43D3607B681B685B6923F4BD
:1036B00040717B689A697B681B680A435A617B6822
:1036C0001B682C4A934203D1FFF76CF8F86002E0C4
:1036D000FFF754F8F860FA6813469B0013449A0009
:1036E0001A447B685B689B00B2FBF3F3224AA2FB9F
:1036F00003235B091901FA6813469B0013449A00DF
:103700001A447B685B689B00B2FBF3F21A4BA3FB85
:1037100002035B09642000FB03F3D31A1B0132335D
:10372000154AA2FB03235B0903F0F0031944FA686E
:1037300013469B0013449A001A447B685B689B0005
:10374000B2FBF3F20C4BA3FB02035B09642000FB0A
:1037500003F3D31A1B013233074AA2FB03235B098D
:1037600003F00F027B681B680A449A6000BF1037A1
:10377000BD4680BD003801401F85EB5180B582B049
:1037800000AF78607B68DB68002B03D07B68DB6868
:1037900041209847002318460837BD4680BDB0B584
:1037A00086B000AFF860B9607A603B60FB68002BC0
:1037B00002D0BB68002B01D1012379E0FA68BB6815
:1037C00014461D460FCD0FC42B682360FB687A6832
:1037D0005A61FB683A689A61FB68FA6ADA61FB68C9
:1037E0003A6B1A62FB6897F8282083F82420FB685C
:1037F000002283F82520FB68002283F82620FB683E
:10380000002283F82720FB684FF000029A62FB68D1
:1038100000229A85FB689B68002B03D0FB689B689D
:10382000F8689847FB68DB68002B03D0FB68DB680F
:103830000A2098470023FB7507F117031A46002159
:10384000F86800F039F80346002B01D001232FE07F
:10385000F86800F004FA97F828301946F86800F084
:1038600024F90346002B01D0012321E00021F86850
:1038700000F091F90346002B01D0012318E000214C
:10388000F86800F0BAF90346002B01D001230FE0DD
:1038900047F6FF720021F86800F00DFA0346002B8E
:1038A00001D0012304E0FB68012283F826200023D5
:1038B00018461837BD46B0BD90B587B000AFF86068
:1038C0000B467A60FB72FB68002B06D07B68002BEE
:1038D00003D0FB681B68002B01D101233AE0FB7A7F
:1038E00003F07F03DBB2BB750023BB82FB685B6820
:1038F000002B03D0FB685B68F8689847FB68DB68BF
:10390000002B03D0FB68DB6801209847FB681C682C
:1039100007F1140207F116010223F868A0470346D5
:10392000FB75FB68DB68002B03D0FB68DB680120BC
:103930009847FB689B68002B03D0FB689B68F8687E
:103940009847FB7D002B01D0FB7D03E07A7D7B68EF
:103950001A70002318461C37BD4690BD90B587B03D
:1039600000AFF8600B467A60FB72FB68002B06D054
:103970007B68002B03D0FB681B68002B01D101235F
:1039800047E0FB7A03F07F03DBB2BB7507F110035E
:1039900000210A461A800A469A70FB685B68002B71
:1039A00003D0FB685B68F8689847FB68DB68002B0E
:1039B00003D0FB68DB6801209847FB681C6807F1AF
:1039C000100207F116010323F868A0470346FB75B0
:1039D000FB68DB68002B03D0FB68DB68012098479D
:1039E000FB689B68002B03D0FB689B68F8689847CE
:1039F000FB7D002B01D0FB7D0BE07B7C1BB21B020F
:103A00001AB2BB7C1BB213431BB29AB27B681A80FA
:103A1000002318461C37BD4690BD90B585B000AF59
:103A200078600B46FB701346BB707B68002B03D09D
:103A30007B681B68002B01D1012332E0FB7863F027
:103A40007F03DBB23B73BB787B737B685B68002BC7
:103A500003D07B685B68786898477B68DB68002BDD
:103A600003D07B68DB68012098477B681C6807F1FE
:103A7000080207F10C0102237868A0470346FB7394
:103A80007B68DB68002B03D07B68DB6801209847EC
:103A90007B689B68002B03D07B689B68786898479D
:103AA000FB7B18461437BD4690BD80B584B000AF8F
:103AB00078600B46FB707B68002B01D101232BE063
:103AC0000023FB7307F10F031A4600217868FFF704
:103AD000F3FE0346002B01D001231DE0FB78012BF0
:103AE00005D1FB7B43F01003DBB2FB7304E0FB7BEF
:103AF00023F01003DBB2FB73FB7B1A4600217868CE
:103B0000FFF78BFF0346002B01D0012304E07B6805
:103B1000FA7883F82420002318461037BD4680BD6C
:103B200080B584B000AF78600B46FB707B68002BDB
:103B300001D101232BE00023FB7307F10F031A4689
:103B400000217868FFF7B8FE0346002B01D001235F
:103B50001DE0FB78012B05D1FB7B43F00103DBB2B9
:103B6000FB7304E0FB7B23F00103DBB2FB73FB7B05
:103B70001A4600217868FFF750FF0346002B01D05A
:103B8000012304E07B68FA7883F825200023184697
:103B90001037BD4680BD80B584B000AF78600B465D
:103BA000FB707B68002B01D1012322E00023FB7313
:103BB00007F10F031A4600217868FFF77DFE0346E0
:103BC000002B01D0012314E0FB78002B05D0FB7BF8
:103BD00063F07F03DBB2FB7304E0FB7B03F07F0346
:103BE000DBB2FB73FB7B1A4600217868FFF715FFF9
:103BF000034618461037BD4680BD80B584B000AF7F
:103C000078600B46FB707B68002B01D1012322E01A
:103C10000023FB7307F10F031A4600217868FFF7B2
:103C20004BFE0346002B01D0012314E0FB78002B50
:103C300005D0FB7B43F04003DBB2FB7304E0FB7B6E
:103C400023F04003DBB2FB73FB7B1A46002178684C
:103C5000FFF7E3FE034618461037BD4680BD80B52A
:103C600084B000AF78607B68002B01D101231EE097
:103C70000023FB7307F10F031A4600217868FFF752
:103C80001BFE0346002B01D0012310E0FB7B23F039
:103C90002C03DBB2FB73FB7B43F00203DBB2FB7351
:103CA000FB7B1A4600217868FFF7B7FE03461846EB
:103CB0001037BD4680BD80B582B000AF78600B463E
:103CC0007B8013463B807B68002B01D1012334E0CD
:103CD0007B881B0A9BB2DBB21A4605217868FFF786
:103CE0009CFE0346002B01D0012326E07B88DBB23B
:103CF0001A4606217868FFF790FE0346002B01D094
:103D000001231AE03B881B0A9BB2DBB21A4603214F
:103D10007868FFF782FE0346002B01D001230CE0F8
:103D20003B88DBB21A4604217868FFF776FE03462B
:103D3000002B01D0012300E0002318460837BD46C0
:103D400080BD80B584B000AF786039607B68002B9F
:103D500002D03B68002B01D1012368E07868FFF7AF
:103D60007EFF01217868FFF716FF0346002B01D084
:103D700001235CE07B68DB68002B03D07B68DB6899
:103D80000A2098470023FB7307F10F031A4600210E
:103D90007868FFF791FD0346002B01D0012346E030
:103DA000FB7B43F02003DBB2FB73FB7B1A46002155
:103DB0007868FFF732FE0346002B01D0012336E07E
:103DC0007868FFF7DBFC0346002B01D001232EE0CF
:103DD0000023BB8107F10C031A4601217868FFF725
:103DE000BDFD0346002B01D0012320E000217868AF
:103DF000FFF7D1FEBB895B089AB23B681A803B682B
:103E00001A887B689A85BB8903F00103002B0DD0CB
:103E10000023FB7207F10B031946786800F00BF8DA
:103E2000FA7A7B6883F82720032300E000231846F2
:103E30001037BD4680BD80B582B000AF7860396074
:103E40007B68002B02D03B68002B01D1012305E0E9
:103E50003A6807217868FFF72FFD034618460837B0
:103E6000BD4680BD80B586B000AF786039607B68A4
:103E7000002B02D03B68002B01D1012324E000235A
:103E8000FB8107F10E0319467868FFF75AFF0346D6
:103E9000FB75FB7D002B01D0FB7D15E0FA897B686B
:103EA000DB691946104600F03EF838617B681B6AF2
:103EB0001946386900F052F802463B681A603B68C0
:103EC0001A687B689A62002318461837BD4680BD81
:103ED00080B584B000AF786039607B68002B02D079
:103EE0003B68002B01D1012319E00023BB8107F1BE
:103EF0000C0319467868FFF724FF0346FB73FB7B2E
:103F0000002B01D0FB7B0AE0BA897B68DB6919468C
:103F1000104600F008F802463B681A600023184675
:103F20001037BD4680BD80B582B000AF0346396012
:103F3000FB80FB881846FCF75DFE0346396818468F
:103F4000FCF7B0FE03464FF08E411846FCF75EFFCB
:103F5000034618460837BD4680BD000080B588B0CE
:103F600000AF786039605C4BFB615C4BBB613968CA
:103F70005B48FCF74BFF03467B615A4B3B6179681A
:103F80007869FCF78FFE03461946B869FCF782FD95
:103F90000346FB60F86802F06DFE0346F9691846B7
:103FA000FCF778FD034639691846FCF72FFF0346F6
:103FB000FB604FF00001F868FDF726F80346002B80
:103FC00001D0FB6884E039687868FCF71FFF03467E
:103FD00045491846FCF766FE0346BB60434BFB6051
:103FE0004349B868FCF75EFE03461946F868FCF7DB
:103FF00051FD0346FB6039687868FCF707FF03460C
:1040000039491846FCF74EFE03461946B868FCF7D6
:1040100049FE0346BB603749B868FCF743FE0346D8
:104020001946F868FCF736FD0346FB603968786886
:10403000FCF7ECFE03462C491846FCF733FE03461A
:104040001946B868FCF72EFE0346BB602A49B868DB
:10405000FCF728FE03461946F868FCF719FD0346ED
:10406000FB6039687868FCF7D1FE03461E491846A4
:10407000FCF718FE03461946B868FCF713FE034622
:10408000BB601E49B868FCF70DFE03461946F86888
:10409000FCF7FEFC0346FB6039687868FCF7B6FE67
:1040A000034611491846FCF7FDFD03461946B8685A
:1040B000FCF7F8FD0346BB601149B868FCF7F2FD58
:1040C00003461946F868FCF7E5FC0346FB60FB680D
:1040D00018462037BD4680BD321180BB168393370A
:1040E0007F051BB67F059BB50000C8421F0572C344
:1040F0005B420E403478293B06EFA1361317F232AB
:104100003B99272FB0B582B000AF0346FB71514BEE
:1041100000221A70FB79002B01D14F4B96E097F9E2
:104120000730002B12DA4B48FCF712F803461A4608
:10413000484B1344494A1D4614460FCC2860696019
:10414000AA60EB602068286123792B75FB7903F066
:104150004003002B10D03F48FBF7FAFF03461A46F6
:104160003C4B13443E4A1D4614460FCC2860696000
:10417000AA60EB6020682861FB7903F02003002B24
:1041800015D03448FBF7E4FF03461A46314B13447D
:10419000344A1C4615460FCD20606160A260E36082
:1041A00028682061AB88AA79A3821346A375FB799E
:1041B00003F01003002B15D02648FBF7C9FF034678
:1041C0001A46244B1344284A1C4615460FCD20603E
:1041D0006160A260E36028682061AB88AA79A3824D
:1041E0001346A375FB7903F00803002B15D019487B
:1041F000FBF7AEFF03461A46164B13441B4A1C46F8
:1042000015460FCD20606160A260E36028682061E0
:10421000AB88AA79A3821346A375FB7903F0040344
:10422000002B12D00B48FBF793FF03461A46094BAD
:1042300013440F4A1D4614460FCC28606960AA60DB
:10424000EB602068286123792B75024B18460837EC
:10425000BD46B0BDC8020020F0700008FC70000828
:104260001471000828710008407100085871000896
:1042700070710008002B2DE9F0471D46BBBF03F10C
:1042800000431D4600232D2388B01446B8BF1446B2
:10429000129A109E1370149BDDF84CA023F0200896
:1042A000B8F1460F05D0B8F1450F00D10136022311
:1042B00000E0032307AA049206AACDE902A2CDE9F1
:1042C000003622462B4600F04FFFB8F1470F074655
:1042D00019D1119BDB070ED500EB06090022002344
:1042E00020462946FCF760FB08B1CDF81C9030222F
:1042F000079B4B451ED33846079B159ADB1B136063
:1043000008B0BDE8F087B8F1460F00EB0609E5D12B
:104310000378302B0AD10022002320462946FCF7DF
:1043200043FB18B9C6F10106CAF80060DAF800309C
:104330009944D3E7591C07911A70D9E7F7B50029BA
:10434000B6BF2D232B23494209290270437029DD72
:104350000DF107031D460A27B1FBF7F61A4607FBC6
:104360001614303402F8014C0C46632C314603F12C
:10437000FF33F1DC3031941E03F8011C2346411C4D
:10438000AB420AD30DF109039B1AAC4288BF00234C
:1043900002330344181A03B0F0BD13F8016B01F89F
:1043A000016FEDE7302330318370C170031DF1E7F9
:1043B0002DE9F04F91B00C46DDF8688016461F4697
:1043C000054600F0C3FD036818460893FBF7C0FEDE
:1043D00000230E93D8F800300990073323F0070329
:1043E00003F1080294F818A0D4F800B0C8F800202F
:1043F000D3E9008929F000430B93CDF828804FF0D2
:10440000FF32DDE90A01C4E912899C4BFCF7FEFA90
:1044100070BBDDE90A014FF0FF32984BFCF7D8FA88
:1044200030BB0022002340464946FCF7C7FA10B1D2
:104430002D2384F84330924A924BBAF1470F8CBF38
:104440009046984603234FF0000923612BF00403A4
:10445000236033462146284600970FAA00F0D4F97E
:10446000013040F090804FF0FF3011B0BDE8F08F88
:1044700042464B4640464946FCF7C8FA48B14B46CF
:10448000002BB8BF2D23804AB8BF84F843307F4B40
:10449000D3E763680AF0DF015A1C3FD1062363604B
:1044A00000224BF48063236006920EAACDE904A299
:1044B0000DAA03920DF13302CDE901326368424641
:1044C000009328464B460A91FFF7D4FE0A9980468E
:1044D00047290D9928D1C81C02DB6368994240DD49
:1044E000AAF1020A5FFA8AFA5246013904F1500031
:1044F0000D91FFF723FF0E9A81461318012A2361BD
:1045000002DC2268D20701D5013323619DF83330E4
:10451000002B9ED02D2384F843309AE74729BFD142
:10452000002BBDD10123BAE7BAF1650FDCD9BAF18E
:10453000660F18D1002963680BDD216113B9226869
:10454000D00702D501330B4423614FF00009A16568
:10455000DCE713B92268D20701D50233F4E701235F
:10456000F2E74FF0670A0E9B994205DB2368216151
:10457000D807EAD54B1CE7E70029CCBF0122C1F1DF
:1045800002021344E0E723685A0507D42369424630
:1045900031462846B84701302BD164E7BAF1650FA0
:1045A00040F2DC80D4E9120100220023FCF7FCF980
:1045B000002833D0012331462846354AB847013018
:1045C0003FF451AFDDE90D38434502DB2368D807DE
:1045D0000FD5DDE9082331462846B84701303FF4BE
:1045E00042AF4FF0000908F1FF3804F11A0AC8453C
:1045F00009DC23689B0700F10281E0680F9B984269
:10460000B8BF184631E70123524631462846B8471D
:1046100001303FF428AF09F10109E8E70D9B002BB9
:1046200038DC012331462846194AB84701303FF4A7
:104630001AAFDDE90D3959EA030302D12368D9071E
:10464000D7D5DDE9082331462846B84701303FF485
:104650000AAF4FF0000A04F11A0B0D9B5B42534561
:1046600001DC4B4693E701235A4631462846B847BA
:1046700001303FF4F8AE0AF1010AEEE7FFFFEF7FE9
:10468000B6710008B2710008BE710008BA71000866
:10469000C2710008A36DDDF838A05345A8BF53468A
:1046A000002B994636DC4FF0000B29EAE97904F13A
:1046B0001A02A36D0A93A3EB09035B4531DC0D9B42
:1046C0009A453ADC2368DA0737D40D9BAAEB030935
:1046D0000A9BAAEB03039945A8BF9946B9F1000FBD
:1046E00033DC4FF0000829EAE97904F11A0B0D9B3D
:1046F000AAEB0303A3EB090343457FF77AAF01233A
:104700005A4631462846B84701303FF4ACAE08F16E
:104710000108ECE7424631462846B8470130C2D18D
:10472000A1E60123314628460A92B84701303FF4FA
:104730009AAE0A9A0BF1010BBBE73146DDE908237B
:104740002846B8470130C0D18DE60A9A4B4631461B
:1047500028464244B8470130C3D184E6DDF838A08A
:10476000BAF1010F01DCDB0736D5012342463146A1
:104770002846B84701303FF476AEDDE908233146DC
:104780002846B84701303FF46EAED4E9120100224A
:1047900000230AF1FF3AFCF707F9C0B9534608F1C4
:1047A000010231462846B84701300CD15BE60123AF
:1047B0005A4631462846B84701303FF454AE08F116
:1047C0000108D045F3DB4B4604F15002E0E64FF020
:1047D000000804F11A0BF4E701234246E1E7012344
:1047E0004A4631462846B84701303FF43CAE08F10E
:1047F0000108E3680F995B1A4345F0DCFDE64FF0D2
:10480000000804F11909F4E72DE9F0471646984627
:104810008A680B6907469342B8BF1346336091F824
:1048200043200C46DDF820900AB101333360236841
:10483000990642BF336802333360256815F00605D8
:1048400006D104F1190AE36832689B1AAB422BDCEB
:1048500094F843302268003B18BF0123920630D4FD
:104860004146384604F14302C847013023D023684B
:10487000226903F00603042B14BF002533684FF0B0
:10488000000608BFE56804F11A0408BFED1A54F8E1
:10489000123C08BF25EAE5759342C4BF9B1AED1888
:1048A000B5421AD1002008E001235246414638465D
:1048B000C847013003D14FF0FF30BDE8F087013524
:1048C000C1E73020E11881F843005A1C94F84510E4
:1048D0002244023382F84310C2E7012322464146B4
:1048E0003846C8470130E6D00136D9E72DE9FF4701
:1048F0000F7E9146782F80460C469A460C9E01F119
:10490000430207D8622F0AD8002F00F0D180582F19
:1049100000F0B88004F1420684F842703AE0A7F152
:104920006303152BF6D801A151F823F0854900083F
:10493000994900081549000815490008154900085B
:10494000154900089949000815490008154900084B
:104950001549000815490008974A0008C34900088E
:10496000514A00081549000815490008B94A0008CD
:1049700015490008C34900081549000815490008F1
:10498000594A000833681A1D1B68326004F1420658
:1049900084F8423001239CE033682068191D31609F
:1049A000060601D51D6803E04506FBD5B3F90050A6
:1049B000002D03DA2D236D4284F843300A23584832
:1049C00011E021683368080653F8045B02D44906F5
:1049D00048BFADB26F2F336014BF0A23082350487D
:1049E000002184F843106668002EA66005DB21686C
:1049F0002E4321F0040121604BD01646B5FBF3F1A4
:104A000003FB1157C75D06F8017D2F46BB420D46DB
:104A1000F4D9082B0BD12368DF0708D52369616817
:104A20009942DEBF302306F8013C06F1FF36921BA7
:104A300022614B4621464046CDF800A003AAFFF76D
:104A4000E3FE01304AD14FF0FF3004B0BDE8F087FB
:104A5000236843F0200323607827324884F84570A8
:104A6000236831681F0651F8045B02D45F0648BF13
:104A7000ADB23160D90744BF43F0200323601DB1BC
:104A80001023ADE72648E9E7236823F020032360DD
:104A9000F6E71646BDE733682568181D6169306082
:104AA0002E061B6801D5196002E06806FBD5198047
:104AB000002316462361BCE7336800211A1D3260CB
:104AC0001E686268304600F0B8FA08B1801B60606A
:104AD00063682361002384F84330AAE732464946DD
:104AE00040462369D0470130ADD023689B0713D4DB
:104AF000E068039B9842B8BF1846A6E701233246F8
:104B000049464046D04701309DD00135E3680399BE
:104B10005B1AAB42F2DCEBE7002504F11906F5E77E
:104B2000C4710008D5710008002310B50446C0E91F
:104B30000033C0E90433836081814366C2818361AD
:104B4000194608225C3000F0F9F90D4B24626362CB
:104B50000C4BA3620C4BE3620C4B23630C4B9C424B
:104B600006D003F16802944202D0D0339C4205D1B2
:104B700004F15800BDE8104000F05CBA10BD00BF61
:104B80008D4D0008AF4D0008E74D00080B4E0008A2
:104B9000C8030020024A0349034800F069B800BF77
:104BA0000C000020816900081C00002041680C4BAB
:104BB00010B59942044601D001F0E2FEA168094B0C
:104BC000994202D0204601F0DBFEE168064B994293
:104BD00004D02046BDE8104001F0D2BE10BD00BF99
:104BE000C8030020300400209804002010B50B4BAF
:104BF0000B4C0C4A20461A6004210022FFF794FF58
:104C000004F1680001220921FFF78EFF04F1D000B2
:104C10000222BDE810401221FFF786BF00050020E8
:104C2000C8030020954B0008014800F004BA00BFFB
:104C300009050020014800F0FFB900BF0905002068
:104C400010B50446FFF7F0FF236A1BB1BDE8104022
:104C5000FFF7F0BF044B2362044B1B68002BF5D118
:104C6000FFF7C4FFF2E700BFAD4B000800050020CE
:104C70002DE9F8430746884614460026D4E90195F5
:104C8000B9F1010905D52468002CF7D13046BDE8FB
:104C9000F883AB89012B07D9B5F90E30013303D066
:104CA00029463846C04706436835E9E70FB407B5DB
:104CB000064904AB086853F8042B8168019301F09E
:104CC000C7FC03B05DF804EB04B070471800002087
:104CD000036A70B505460E4684680BB9FFF7B0FF4E
:104CE000636EDB0705D4A389980502D4A06D00F09C
:104CF000A2F9A389190702D52369002B35D12146D2
:104D0000284600F0C5F880B34FF0FF35636EDA0730
:104D100005D4A3899B0502D4A06D00F08DF9284627
:104D200070BD002B04DAA2699A4217DC0A2915D05B
:104D300023685A1C22601970A36816F8011F013BF2
:104D4000A3600029EDD1002B11DA22460A21284662
:104D500000F05FF80130D7D00A25D7E72246284671
:104D600000F057F80130E7D1CEE7013EE4E72368D1
:104D70005A1C22600A221A70EEE70000024B01461C
:104D80001868FFF7A5BF00BF1800002010B50C463B
:104D9000B1F90E1000F000F90028ABBF636DA389D4
:104DA0001B1823F48053ACBF6365A38110BD2DE9AC
:104DB000F0411F468B890546DB050C46164605D596
:104DC00002230022B1F90E1000F0D4F8A389324674
:104DD00023F48053A38128463B46B4F90E10BDE866
:104DE000F04100F0EBB810B50C46B1F90E1000F030
:104DF000C1F8431CA38915BF606523F4805343F4B5
:104E00008053A38118BFA38110BDB1F90E1000F02B
:104E1000A1B8F8B50E461446054618B1036A0BB999
:104E2000FFF70EFFA369A360A3891A0701D52369C1
:104E300043B92146284600F02BF818B14FF0FF3750
:104E40003846F8BD23682269F6B2981A6369374676
:104E5000834205DC2146284601F092FD0028EDD171
:104E6000A368013BA36023685A1C22601E7062691C
:104E7000431C9A4204D0A389DB07E1D50A2EDFD177
:104E80002146284601F07CFD0028D9D0D6E7000055
:104E900038B5294B054618680C4618B1036A0BB99A
:104EA000FFF7CEFEB4F90C30190722D4DA0607D486
:104EB00009222A6043F040034FF0FF30A38133E022
:104EC000580712D5616B41B104F14403994202D0F5
:104ED000284600F01DFF00236363A38923F0240309
:104EE000A3810023636023692360A38943F008033F
:104EF000A38123694BB9A38903F42073B3F5007F21
:104F000003D02146284601F088FDB4F90C3013F097
:104F100001020AD00022A26062695242A2612269A3
:104F200042B913F08000C5D138BD990758BF6269F6
:104F3000A260F4E70020F7E71800002003460244CF
:104F4000934200D1704703F8011BF9E7004870470E
:104F50005801002038B50023054D044608462B6053
:104F6000FCF733FC431C02D12B6803B1236038BD2E
:104F70000405002038B50446084611460022054DB8
:104F80002A601A46FCF745FC431C02D12B6803B18A
:104F9000236038BD0405002038B504460846114694
:104FA0000022054D2A601A46FCF7F2FB431C02D191
:104FB0002B6803B1236038BD0405002038B50446D2
:104FC000084611460022054D2A601A46FCF712F9E0
:104FD000431C02D12B6803B1236038BD04050020B7
:104FE000014B1868704700BF1800002070B50026FC
:104FF0000C4D0D4C641BA410A64209D101F0C4FE57
:1050000000260A4D0A4C641BA410A64205D170BDAF
:1050100055F8043B98470136EEE755F8043B9847AE
:105020000136F2E73475000834750008347500085D
:1050300038750008704770477047034610B5C9B20D
:1050400002449342184601D1002003E00478013362
:105050008C42F6D110BD2DE9F74F03690C69074664
:10506000A3427EDB013CA30000F1140501F114080A
:10507000009305EB8403019358F8243055F824205D
:1050800001339A42B2FBF3F608EB84092ED34FF0BA
:10509000000AC446AE46D3465CF8043B98B206FB11
:1050A00000A01B0C020C06FB0323DEF8002080B2DC
:1050B00092B2121A5A44DEF800004FEA134A9BB229
:1050C000C3EB224303EB104392B242EA0342E145B1
:1050D0004FEA234B4EF8042BDED2009BEB582BB942
:1050E000019B043B9D421A462FD33C61384601F098
:1050F0007FF9002825DB2946002058F8042BD1F839
:1051000000C01FFA82FE1FFA8CF3A3EB0E030344C8
:10511000120CC2EB234202EB1C429BB243EA024355
:10512000C1454FEA224041F8043BE6D255F824201D
:1051300005EB840322B9043B9D421A460BD33C6124
:105140000136304603B0BDE8F08F1268043B002AF8
:10515000CBD1013CC6E71268043B002AEFD1013CE9
:10516000EAE70020EEE700002DE9F04F14461D4667
:10517000C76997B08146CDE90645239E7FB91020C7
:1051800000F00EFE0246C9F81C0020B9EF21AC4B1E
:10519000AC4801F0BFFCC0E901770760C760D9F8EF
:1051A0001C30196859B15A68012393404A608B60DA
:1051B000484600F0EBFE0022D9F81C301A602B1E86
:1051C000AFBF0023012223F000430793A8BF336041
:1051D000DDF81C809C4BB8BF326033EA080312D163
:1051E00042F20F73229A1360C8F31303234300F0B3
:1051F0005E85249BDFF854A2002B00F060850AF145
:10520000030300F05ABDDDE90623CDE90C23DDE9F7
:105210000C0100220023FBF7C7FB074658B101230E
:10522000229A1360249B13B1894B249A1360DFF8F0
:1052300024A200F044BD14AB019315AB0093484683
:10524000DDE90C2301F084F9C8F30A560390002E1F
:1052500078D0DDE90C010D9BA6F2FF36C3F31303F2
:1052600043F07F5343F440131297194600227A4BC0
:10527000FAF77AFF6CA3D3E90023FBF72DF96CA3AF
:10528000D3E90023FAF772FF044630460D46FBF7D8
:10529000B9F869A3D3E90023FBF71EF902460B46D0
:1052A00020462946FAF762FF04460D46FBF7C4FB89
:1052B00000220746002320462946FBF77FFB40B12A
:1052C0003846FBF79FF822462B46FBF76DFB00B9EB
:1052D000013F162F54D8DDE90C01604B03EBC703E7
:1052E000D3E90023FBF76AFB00284BD00023013FE2
:1052F0000F93149B9B1B5A1E49BFC3F1010300234C
:1053000004930023099254BF04930993002F3BDBBD
:10531000099B0E973B44099300230A93209B092B7A
:1053200065D8052BC4BF043B2093209BC8BF002435
:10533000A3F10203D8BF0124032B64D8DFE803F0F4
:105340005355382CDDE914631E4406F23243202BFA
:10535000C1BFC3F1400308FA03F806F2124324FA6E
:1053600003F3D6BFC3F1200348EA030004FA03F0B5
:10537000FBF738F80122A1F1F873013E129274E7AD
:105380000123B5E70F90B4E7049BDB1B04937B423A
:105390000A9300230E93C1E701230B93219B07EB94
:1053A000030B0BF10103012B0893B8BF012306E0A7
:1053B00001230B93219B002B28DD9B4608930021A2
:1053C0000422D9F81C0002F114059D4226D941603F
:1053D000484600F09BFD8246002843D1024640F239
:1053E000AF111F4BD4E60023E3E70023D5E70124E8
:1053F00000230B9420934FF0FF3B00221223CDF8A3
:1054000020B02192DBE701230B93F4E74FF0010B6F
:105410005B46CDF820B0CDF884B0D0E70131520022
:10542000D1E700BFAFF3008061436F63A787D23F2E
:10543000B3C8608B288AC63FFB799F501344D33F83
:10544000F37100080A7200080000F07FEF71000895
:10545000C3710008C27100080000F83F58730008CB
:1054600062720008D9F81C301860089B0E2B00F2FD
:10547000A180002C00F09E80002F33DD9C4B07F0B4
:105480000F0203EBC203F805D3E90034CDE9103471
:105490004FEA271416D5DDE90C01964B0326D3E914
:1054A0000823FBF743F9CDE9060104F00F04914D01
:1054B00054B9DDE91023DDE90601FBF737F9CDE941
:1054C000060128E00226F2E7E10708D5DDE9100130
:1054D000D5E90023FBF700F8CDE91001013664108F
:1054E0000835E5E700F0AF80DDE90C017C42804B38
:1054F00004F00F0203EBC203D3E90023FAF7ECFF39
:1055000002260023CDE906017A4D2411002C40F03B
:105510008F80002BD3D1DDE906450F9B002B00F0D7
:105520009480002220462946734BFBF747FA002857
:1055300000F08B80089B002B00F08780BBF1000FF0
:1055400034DD2046002229466C4BFAF7C5FF5C4645
:10555000CDE9060107F1FF3801363046FAF752FF70
:10556000DDE90623FAF7B8FF0022654BFAF7FEFDE6
:105570000546A1F15076002C6AD1DDE90601002232
:10558000604BFAF7F1FD02460B46CDE906232A46A9
:105590003346FBF731FA002840F09882DDE9060136
:1055A0002A4606F10043FBF709FA38BBDDE90C3463
:1055B000CDE90634159B002BC0F257810E2F00F366
:1055C00054814B4B03EBC703D3E90034CDE90434DA
:1055D000219B002B80F2E580089B002B00F3E180EB
:1055E0000CD1DDE904010022464BFAF775FFDDE935
:1055F0000623FBF7F7F9002800F066820024254611
:10560000219B56466FEA030800272146484600F0D2
:10561000BDFC002D00F0BD802FB1AF4203D0394654
:10562000484600F0B3FC2946484600F0AFFCB0E025
:10563000E20705D5D5E90023FAF74EFF012301362D
:105640006410083562E7022665E7B846089C84E7DF
:10565000274B0B9903EBC40353E90223544400295D
:1056600054D000202849FBF761F833462A46FAF760
:105670007BFD5646CDE91001DDE90601FBF7DCF9BB
:105680000546FAF7BFFE02460B46DDE90601FAF7CA
:105690006BFD02460B463035CDE90623DDE91023CC
:1056A00006F8015BFBF78AF9002872D1DDE90623D1
:1056B00000201149FAF758FDDDE91023FBF77EF9C8
:1056C000002840F0B480A6423FF470AFDDE910013D
:1056D00000220A4BFAF700FF0022CDE91001DDE9B4
:1056E0000601064BFAF7F8FECDE90601C4E700BF54
:1056F00058730008307300080000F03F0000244099
:1057000000001C40000014400000E03F31462846E5
:10571000FAF7E2FE5646CDE910011394DDE90601E1
:10572000FBF78AF90546FAF76DFE02460B46DDE9FE
:105730000601FAF719FD02460B46303506F8015B03
:10574000A642CDE906234FF0000224D1DDE9100185
:10575000AE4BFAF70BFD02460B46DDE90601FBF7FF
:105760004BF9002863D1DDE910230020A749FAF79F
:10577000FBFC02460B46DDE90601FBF71FF900289A
:105780003FF414AF139E731E139316F8013C302B95
:10579000F8D047463BE09E4BFAF79EFECDE9060166
:1057A000BCE75646DDE90645DDE9042320462946E7
:1057B000FAF7BCFFFBF740F98046FAF723FEDDE974
:1057C0000423FAF789FE02460B4620462946FAF7DB
:1057D000CBFC08F13004089D06F8014BA6EB0A0447
:1057E000A54202460B4633D1FAF7C0FCDDE904239B
:1057F00004460D46FBF700F9C0B9DDE90423204655
:105800002946FBF7D1F810B118F0010F0ED1484628
:10581000039900F0BBFB00233370229B01371F600C
:10582000249B002B00F04B821E6048E2B8463346B2
:105830001E4613F8012D392A06D19A45F8D1302297
:1058400008F101088AF800201A7801321A70A0E7DE
:1058500000226F4BFAF740FE0022002304460D465B
:10586000FBF7A2F800289FD0D1E70B9A002A00F09E
:10587000EA80209A012A00F3CD80129A002A00F0D3
:10588000C18003F233430A9C049E049A01211A4406
:105890000492099A48461A44099200F02BFC0546E6
:1058A00066B1099B002B09DDB342A8BF3346049AB9
:1058B000F61AD21A0492099AD31A09930A9B0BB3C7
:1058C0000B9B002B00F0C680002C00F0C080294606
:1058D0002246484600F0C6FC039A01460546484663
:1058E00000F01EFC03998046484600F04FFB0A9BDF
:1058F0001B1B0A9300F0B18041460A9A484600F00B
:10590000B1FC03900121484600F0F4FB0E9B0446D5
:10591000002B00F0D8811A460146484600F0A2FC50
:10592000209B0446012B00F39F80069B002B40F038
:105930009780079BC3F31303002B40F09380079BD2
:1059400023F000431B0D1B0533B1049B013304936B
:10595000099B0133099301230A930E9B002B00F04E
:10596000B881236904EB8303186900F077FBC0F169
:105970002000099B184410F01F0000F08280C0F145
:105980002003042B73DD049BC0F11C00034404932B
:10599000099B064403440993049B002B05DD1A462A
:1059A0004846039900F0B8FC0390099B002B05DDE5
:1059B00021461A46484600F0AFFC04460F9B002BD8
:1059C00061D02146039800F013FD00285BDA002324
:1059D0000A224846039900F0FBFA0B9B07F1FF38B7
:1059E0000390002B00F07781294600230A224846C5
:1059F00000F0EEFABBF1000F05466FDC209B022B96
:105A000049DC6BE0149BC3F136033CE70000E03F48
:105A100000002440089B5C1E0A9BA34209DB1C1B60
:105A2000089B002BBFF630AF049B089A9E1A0023F8
:105A30002BE70A9B0E9AE31A1A440A94049E002448
:105A4000089B0E9221E70A9C049E0B9D28E7DDF837
:105A50000C8051E70A9A039950E7CDF80C8051E782
:105A6000002379E7069B77E700230A9379E793D031
:105A7000049A1C331A440492099A1E441A44099247
:105A80008AE70346F4E7089BB846002B20DC9B46D8
:105A9000209B022B1EDDBBF1000F7FF4B1AD214630
:105AA0005B460522484600F093FA014604460398F7
:105AB00000F09EFC00287FF7A3AD5646312308F185
:105AC000010806F8013B9FE5B846089C2546F4E727
:105AD000DDF820B00B9B002B00F00181002E05DDCE
