:020000040800F2
:10000000005000208D160008311500083315000837
:1000100035150008371500083915000800000000E4
:100020000000000000000000000000003B15000878
:100030003D150008000000003F15000841150008AC
:10004000D5160008D5160008D5160008D5160008E4
:10005000D5160008D5160008D5160008D5160008D4
:10006000D5160008D5160008D5160008D5160008C4
:10007000D5160008D5160008D5160008D5160008B4
:10008000D5160008D5160008D5160008D5160008A4
:10009000D5160008D5160008D5160008D516000894
:1000A000D5160008D5160008D5160008D516000884
:1000B000D5160008D5160008D5160008D516000874
:1000C000D5160008D5160008D5160008D516000864
:1000D000D5160008D5160008D5160008D516000854
:1000E000D5160008D5160008D51600080000000037
:1000F0000000000000000000000000000000000000
:0C01000000000000000000005FF808F1A3
:1001100010B5054C237833B9044B13B10448AFF341
:1001200000800123237010BDD401002000000000D6
:10013000B058000808B5034B1BB103490348AFF39F
:10014000008008BD00000000D8010020B058000861
:10015000034613F8012B002AFBD1181A0138704707
:1001600081F0004102E000BF83F0004330B54FEA68
:1001700041044FEA430594EA050F08BF90EA020FD5
:100180001FBF54EA000C55EA020C7FEA645C7FEA68
:10019000655C00F0E2804FEA5454D4EB5555B8BF8B
:1001A0006D420CDD2C4480EA020281EA030382EAFC
:1001B000000083EA010180EA020281EA0303362D8E
:1001C00088BF30BD11F0004F4FEA01314FF4801C61
:1001D0004CEA113102D0404261EB410113F0004F73
:1001E0004FEA03334CEA133302D0524263EB43032A
:1001F00094EA050F00F0A780A4F10104D5F1200EC8
:100200000DDB02FA0EFC22FA05F2801841F1000122
:1002100003FA0EF2801843FA05F359410EE0A5F1F6
:1002200020050EF1200E012A03FA0EFC28BF4CF027
:10023000020C43FA05F3C01851EBE37101F00045DD
:1002400007D54FF0000EDCF1000C7EEB00006EEBEA
:100250000101B1F5801F1BD3B1F5001F0CD3490874
:100260005FEA30004FEA3C0C04F101044FEA4452CB
:1002700012F5800F80F09A80BCF1004F08BF5FEA52
:10028000500C50F1000041EB045141EA050130BD32
:100290005FEA4C0C404141EB0101013C28BFB1F544
:1002A000801FE9D291F0000F04BF01460020B1FA8F
:1002B00081F308BF2033A3F10B03B3F120020CDA62
:1002C0000C3208DD02F1140CC2F10C0201FA0CF040
:1002D00021FA02F10CE002F11402D8BFC2F1200CA5
:1002E00001FA02F120FA0CFCDCBF41EA0C0190405B
:1002F000E41AA2BF01EB0451294330BD6FEA0404A4
:100300001F3C1CDA0C340EDC04F11404C4F120028E
:1003100020FA04F001FA02F340EA030021FA04F3A0
:1003200045EA030130BDC4F10C04C4F1200220FAF7
:1003300002F001FA04F340EA0300294630BD21FA35
:1003400004F0294630BD94F0000F83F4801306BFFB
:1003500081F480110134013D4EE77FEA645C18BFEF
:100360007FEA655C29D094EA050F08BF90EA020F86
:1003700005D054EA000C04BF1946104630BD91EA7E
:10038000030F1EBF0021002030BD5FEA545C05D181
:100390004000494128BF41F0004130BD14F58004C0
:1003A0003CBF01F5801130BD01F0004545F0FE4134
:1003B00041F470014FF0000030BD7FEA645C1ABF69
:1003C000194610467FEA655C1CBF0B46024650EAA0
:1003D000013406BF52EA033591EA030F41F40021CC
:1003E00030BD00BF90F0000F04BF0021704730B552
:1003F0004FF4806404F132044FF000054FF0000127
:1004000050E700BF90F0000F04BF0021704730B5E7
:100410004FF4806404F1320410F0004548BF4042BC
:100420004FF000013EE700BF42004FEAE2014FEA11
:1004300031014FEA02701FBF12F07F4393F07F4FEC
:1004400081F06051704732F07F4208BF704793F0EF
:100450007F4F04BF41F40021704730B54FF4607402
:1004600001F0004521F000411CE700BF50EA010205
:1004700008BF704730B54FF000050AE050EA0102AE
:1004800008BF704730B511F0004502D5404261EB1E
:1004900041014FF4806404F132045FEA915C3FF45F
:1004A000D8AE4FF003025FEADC0C18BF03325FEAFC
:1004B000DC0C18BF033202EBDC02C2F1200300FAAD
:1004C00003FC20FA02F001FA03FE40EA0E0021FAD2
:1004D00002F11444BDE600BF70B54FF0FF0C4CF4C0
:1004E000E06C1CEA11541DBF1CEA135594EA0C0F72
:1004F00095EA0C0F00F0DEF82C4481EA030621EAAD
:100500004C5123EA4C5350EA013518BF52EA0335E7
:1005100041F4801143F4801338D0A0FB02CE4FF099
:100520000005E1FB02E506F00042E0FB03E54FF0C9
:100530000006E1FB03569CF0000F18BF4EF0010EC1
:10054000A4F1FF04B6F5007F64F5407404D25FEABD
:100550004E0E6D4146EB060642EAC62141EA555170
:100560004FEAC52040EA5E504FEACE2EB4F1FD0CB2
:1005700088BFBCF5E06F1ED8BEF1004F08BF5FEA30
:10058000500E50F1000041EB045170BD06F00046E2
:1005900046EA010140EA020081EA0301B4EB5C048F
:1005A000C2BFD4EB0C0541EA045170BD41F4801187
:1005B0004FF0000E013C00F3AB8014F1360FDEBFAC
:1005C000002001F0004170BDC4F10004203C35DA88
:1005D0000C341BDC04F11404C4F1200500FA05F30B
:1005E00020FA04F001FA05F240EA020001F00042AC
:1005F00021F0004110EBD37021FA04F642EB060122
:100600005EEA430E08BF20EAD37070BDC4F10C044B
:10061000C4F1200500FA04F320FA05F001FA04F20F
:1006200040EA020001F0004110EBD37041F10001FB
:100630005EEA430E08BF20EAD37070BDC4F1200506
:1006400000FA05F24EEA020E20FA04F301FA05F26E
:1006500043EA020321FA04F001F0004121FA04F216
:1006600020EA020000EBD3705EEA430E08BF20EAE6
:10067000D37070BD94F0000F0FD101F00046400020
:1006800041EB010111F4801F08BF013CF7D041EAA2
:10069000060195F0000F18BF704703F000465200A6
:1006A00043EB030313F4801F08BF013DF7D043EA77
:1006B0000603704794EA0C0F0CEA135518BF95EA2D
:1006C0000C0F0CD050EA410618BF52EA4306D1D1B4
:1006D00081EA030101F000414FF0000070BD50EAD3
:1006E000410606BF1046194652EA430619D094EA5D
:1006F0000C0F02D150EA013613D195EA0C0F05D147
:1007000052EA03361CBF104619460AD181EA03019A
:1007100001F0004141F0FE4141F470014FF0000052
:1007200070BD41F0FE4141F4780170BD70B54FF0ED
:10073000FF0C4CF4E06C1CEA11541DBF1CEA13556D
:1007400094EA0C0F95EA0C0F00F0A7F8A4EB05044F
:1007500081EA030E52EA03354FEA013100F0888046
:100760004FEA03334FF0805545EA131343EA12630F
:100770004FEA022245EA111545EA10654FEA0026C4
:100780000EF000419D4208BF964244F1FD0404F57D
:10079000407402D25B084FEA3202B61A65EB0305D9
:1007A0005B084FEA32024FF480104FF4002CB6EB96
:1007B000020E75EB030E22BFB61A754640EA0C0016
:1007C0005B084FEA3202B6EB020E75EB030E22BF56
:1007D000B61A754640EA5C005B084FEA3202B6EB97
:1007E000020E75EB030E22BFB61A754640EA9C0056
:1007F0005B084FEA3202B6EB020E75EB030E22BF26
:10080000B61A754640EADC0055EA060E18D04FEAE3
:10081000051545EA16754FEA06164FEAC30343EA83
:1008200052734FEAC2025FEA1C1CC0D111F4801F50
:100830000BD141EA00014FF000004FF0004CB6E749
:1008400011F4801F04BF01430020B4F1FD0C88BFE8
:10085000BCF5E06F3FF6AFAEB5EB030C04BFB6EBF3
:10086000020C5FEA500C50F1000041EB045170BDE6
:100870000EF0004E4EEA113114EB5C04C2BFD4EB13
:100880000C0541EA045170BD41F480114FF0000E97
:10089000013C90E645EA060E8DE60CEA135594EA13
:1008A0000C0F08BF95EA0C0F3FF43BAF94EA0C0F16
:1008B0000AD150EA01347FF434AF95EA0C0F7FF48B
:1008C00025AF104619462CE795EA0C0F06D152EADF
:1008D00003353FF4FDAE1046194622E750EA4106C3
:1008E00018BF52EA43067FF4C5AE50EA41047FF4D4
:1008F0000DAF52EA43057FF4EBAE12E74FF0FF3C39
:1009000006E000BF4FF0010C02E000BF4FF0010C09
:100910004DF804CD4FEA410C7FEA6C5C4FEA430C82
:1009200018BF7FEA6C5C1BD001B050EA410C0CBFD1
:1009300052EA430C91EA030F02BF90EA020F002033
:10094000704710F1000F91EA030F58BF994208BF9A
:1009500090422CBFD8176FEAE37040F00100704757
:100960004FEA410C7FEA6C5C02D150EA013C07D1AE
:100970004FEA430C7FEA6C5CD6D152EA033CD3D0F9
:100980005DF8040B704700BF8446104662468C46F3
:100990001946634600E000BF01B5FFF7B7FF002826
:1009A00048BF10F1000F01BD4DF808EDFFF7F4FF4F
:1009B0000CBF012000205DF808FB00BF4DF808EDDA
:1009C000FFF7EAFF34BF012000205DF808FB00BFFD
:1009D0004DF808EDFFF7E0FF94BF012000205DF81F
:1009E00008FB00BF4DF808EDFFF7CEFF94BF0120D4
:1009F00000205DF808FB00BF4DF808EDFFF7C4FFCD
:100A000034BF012000205DF808FB00BF4FEA410C15
:100A10007FEA6C5C02D150EA013C0AD14FEA430CF8
:100A20007FEA6C5C02D152EA033C02D14FF0000035
:100A300070474FF0010070474FEA410212F5001273
:100A400015D211D56FF47873B3EB625212D94FEA15
:100A5000C12343F0004343EA505311F0004F23FAFF
:100A600002F018BF404270474FF00000704750EA54
:100A7000013005D111F0004008BF6FF00040704711
:100A80004FF00000704700BF80F0004002E000BF60
:100A900081F0004142001FBF5FEA410392EA030F69
:100AA0007FEA226C7FEA236C6AD04FEA1262D2EBB3
:100AB0001363C1BFD218414048404140B8BF5B42B8
:100AC000192B88BF704710F0004F40F4000020F051
:100AD0007F4018BF404211F0004F41F4000121F067
:100AE0007F4118BF494292EA030F3FD0A2F10102B1
:100AF00041FA03FC10EB0C00C3F1200301FA03F1EF
:100B000000F0004302D5494260EB4000B0F5000F11
:100B100013D3B0F1807F06D340084FEA310102F1D0
:100B20000102FE2A51D2B1F1004F40EBC25008BF82
:100B300020F0010040EA03007047490040EB00004C
:100B4000013A28BFB0F5000FEDD2B0FA80FCACF14D
:100B5000080CB2EB0C0200FA0CF0AABF00EBC2507A
:100B600052421843BCBFD0401843704792F0000F68
:100B700081F4000106BF80F400000132013BB5E7BB
:100B80004FEA41037FEA226C18BF7FEA236C21D031
:100B900092EA030F04D092F0000F08BF0846704796
:100BA00090EA010F1CBF0020704712F07F4F04D164
:100BB000400028BF40F00040704712F100723CBF77
:100BC00000F50000704700F0004343F0FE4040F4A1
:100BD000000070477FEA226216BF08467FEA23635F
:100BE0000146420206BF5FEA412390EA010F40F44A
:100BF000800070474FF0000304E000BF10F0004396
:100C000048BF40425FEA000C08BF704743F096437C
:100C100001464FF000001CE050EA010208BF704797
:100C20004FF000030AE000BF50EA010208BF70471E
:100C300011F0004302D5404261EB41015FEA010C33
:100C400002BF84460146002043F0B64308BFA3F12B
:100C50008053A3F50003BCFA8CF2083AA3EBC2530D
:100C600010DB01FA02FC634400FA02FCC2F120022C
:100C7000BCF1004F20FA02F243EB020008BF20F063
:100C80000100704702F1200201FA02FCC2F12002C9
:100C900050EA4C0021FA02F243EB020008BF20EABE
:100CA000DC7070474FF0FF0C1CEAD0521EBF1CEAEC
:100CB000D15392EA0C0F93EA0C0F6FD01A4480EADA
:100CC000010C400218BF5FEA41211ED04FF00063C3
:100CD00043EA501043EA5111A0FB01310CF00040EF
:100CE000B1F5000F3EBF490041EAD3715B0040EA15
:100CF000010062F17F02FD2A1DD8B3F1004F40EBE5
:100D0000C25008BF20F00100704790F0000F0CF0B7
:100D1000004C08BF49024CEA502040EA51207F3A7B
:100D2000C2BFD2F1FF0340EAC250704740F4000056
:100D30004FF00003013A5DDC12F1190FDCBF00F047
:100D400000407047C2F10002410021FA02F1C2F1F5
:100D5000200200FA02FC5FEA310040F1000053EA91
:100D60004C0308BF20EADC70704792F0000F00F0DF
:100D7000004C02BF400010F4000F013AF9D040EAE5
:100D80000C0093F0000F01F0004C02BF490011F479
:100D9000000F013BF9D041EA0C018FE70CEAD15377
:100DA00092EA0C0F18BF93EA0C0F0AD030F0004CF7
:100DB00018BF31F0004CD8D180EA010000F00040AB
:100DC000704790F0000F17BF90F0004F084691F069
:100DD000000F91F0004F14D092EA0C0F01D14202A3
:100DE0000FD193EA0C0F03D14B0218BF084608D16C
:100DF00080EA010000F0004040F0FE4040F40000B6
:100E0000704740F0FE4040F4400070474FF0FF0C48
:100E10001CEAD0521EBF1CEAD15392EA0C0F93EA8F
:100E20000C0F69D0A2EB030280EA010C49024FEAE1
:100E3000402037D04FF0805343EA111143EA10139A
:100E40000CF000408B4238BF5B0042F17D024FF452
:100E5000000C8B4224BF5B1A40EA0C00B3EB510F2D
:100E600024BFA3EB510340EA5C00B3EB910F24BF16
:100E7000A3EB910340EA9C00B3EBD10F24BFA3EB9B
:100E8000D10340EADC001B0118BF5FEA1C1CE0D163
:100E9000FD2A3FF650AF8B4240EBC25008BF20F016
:100EA000010070470CF0004C4CEA50207F32C2BF6A
:100EB000D2F1FF0340EAC250704740F400004FF007
:100EC0000003013A37E792F0000F00F0004C02BF38
:100ED000400010F4000F013AF9D040EA0C0093F002
:100EE000000F01F0004C02BF490011F4000F013B5C
:100EF000F9D041EA0C0195E70CEAD15392EA0C0FC4
:100F000008D142027FF47DAF93EA0C0F7FF470AFFB
:100F1000084676E793EA0C0F04D14B023FF44CAF3E
:100F200008466EE730F0004C18BF31F0004CCAD1D3
:100F300030F000427FF45CAF31F000437FF43CAF0F
:100F40005FE700BF4FF0FF3C06E000BF4FF0010C31
:100F500002E000BF4FF0010C4DF804CD4FEA400213
:100F60004FEA41037FEA226C18BF7FEA236C11D05D
:100F700001B052EA530C18BF90EA010F58BFB2EB10
:100F8000030088BFC81738BF6FEAE17018BF40F090
:100F9000010070477FEA226C02D15FEA402C05D144
:100FA0007FEA236CE4D15FEA412CE1D05DF8040BC9
:100FB000704700BF844608466146FFE70FB5FFF75C
:100FC000C9FF002848BF10F1000F0FBD4DF808ED14
:100FD000FFF7F4FF0CBF012000205DF808FB00BF05
:100FE0004DF808EDFFF7EAFF34BF012000205DF85F
:100FF00008FB00BF4DF808EDFFF7E0FF94BF0120AC
:1010000000205DF808FB00BF4DF808EDFFF7D2FFA8
:1010100094BF012000205DF808FB00BF4DF808EDEB
:10102000FFF7C8FF34BF012000205DF808FB00BFB8
:101030004FEA40024FEA41037FEA226C02D15FEAA5
:10104000402C08D17FEA236C02D15FEA412C02D107
:101050004FF0000070474FF0010070472DE9F0435A
:10106000102489B0224600210DEB040002F0E8FCB8
:10107000214BDFF888909A69214D22439A619A6941
:10108000484622400192019A9A694FF4005142F079
:1010900020029A619A694FF0010802F02002029240
:1010A000029A9A69002742F004029A619B69002221
:1010B00003F004030393039B00F092FC00222146FB
:1010C000284600F08DFC02264FF4005348460DEBF5
:1010D0000401CDE90438CDE9067600F0ADFB2846E1
:1010E0000DEB0401CDE90448CDE9067600F0A4FB40
:1010F00009B0BDE8F08300BF0010024000100140BD
:1011000000080140012B37B515461C4613D14FF09E
:10111000FF3322460C4800F0E7FF98B94FF0FF3349
:1011200022462946084801F08BF9003818BF0120F3
:10113000400003B030BD4FF0FF300090024801F096
:1011400083F8F2E70220F4E72002002000221021B9
:10115000014800F045BC00BF0008014001221021F9
:10116000014800F03DBC00BF0008014000F0FCBA9F
:1011700010B514464FF0FF3392B2024801F0CDFA99
:10118000204610BD7C0200202DE9F041564D8AB06A
:10119000564805AC02F074FB0FCD0FC42B6801223A
:1011A0002360534B5348009305A9534B01F046FC71
:1011B000044630B10146514802F0FAFA0AB0BDE8DF
:1011C000F0814F4802F05CFB00224E4B4E48CDE9C7
:1011D000002343A3D3E9002302F0EAFA214645485D
:1011E00001F08EFB494802F04BFB494E414D494FFF
:1011F00001342146304602F0DBFA0DF10A0128469F
:1012000001F073FC0146002844D1BDF80A20424891
:10121000114602F0CDFA04A9284601F0B9FC0146B6
:1012200000284CD10498FFF7FFF802460B463B48D4
:1012300002F0BEFA03A9284601F03CFD0146002851
:1012400041D10398FFF7F0F802460B46344802F00C
:10125000AFFA0DF10901284601F03FFC01460028D4
:1012600037D19DF80980B8F1000F30D0404601F029
:1012700045FD414602462B4802F09AFA284601F005
:101280009EFB294802F0FCFA384602F0F9FA4FF4C6
:10129000FA600CE0032805D1BDF80A10234802F0DB
:1012A00087FAB8E7224802F083FA4FF47A7000F028
:1012B0005BFA0A2C9CD11F4802F0E2FA7EE71E4836
:1012C00002F076FAB6E71D4802F072FAC1E71C4850
:1012D000D8E71C4802F06CFAD6E700BFAFF30080F5
:1012E0000000000000E07A40C8580008DC58000800
:1012F0000000C842F00100200000D7430C5900084C
:101300004059000800005940645900089E590008DF
:10131000B4590008305B0008CD590008305A000865
:10132000A35B0008A65A0008C25A0008EA59000840
:10133000085A0008195B0008475A0008765A000846
:10134000D35A0008E85A0008202210B590B00021B6
:101350000DEB020002F074FB0021142201A802F040
:101360006FFB022401224FF4803306A8CDE9062347
:10137000CDE90D430A9200F039FB014608B172B67F
:10138000FEE70F23CDE90300059001A8CDE9013464
:1013900000F0EEFC08B172B6FEE710B010BD000020
:1013A00073B500F0BDF9FFF7CFFFFFF757FE00F070
:1013B00015F900F03DF8154802F062FA00F074FDEE
:1013C0000146134802F0F4F9124A1349134802F097
:1013D000EFF9FFF7D9FE124C124D134E01A920462A
:1013E00001F068FC014660B90198FFF71DF802465C
:1013F0000B46304602F0DCF941F2883000F0B4F9D7
:10140000ECE7284602F0D4F9F6E700BF325B0008AB
:101410005B5B0008725B00087B5B0008875B000871
:10142000F0010020B95B00089B5B000872B6FEE784
:1014300008B54FF482730E480E4A0121C0E900231B
:101440004FF400720023C0E905121022C0E90233F4
:10145000C0E90723C0E9093303610A23C36200F02E
:10146000EBFD18B1BDE80840FFF7E0BF08BD00BFC5
:10147000200200200030014010B5044686B0102242
:10148000002102A802F0DCFA2268164B9A4226D10B
:1014900003F560439A69144842F480529A619A694C
:1014A00002A902F480520092009A9A6942F0040262
:1014B0009A619B69A02203F004030193019B02231C
:1014C000CDE902230323059300F0B6F94021002360
:1014D0000548CDE9021302A9049300F0ADF906B066
:1014E00010BD00BF00300140000801400E4B82B02B
:1014F0009A6942F001029A619A6902F0010200922F
:10150000009ADA6942F08052DA61DB69074A03F037
:1015100080530193019B536823F0E06343F0007311
:10152000536002B0704700BF00100240000001404D
:10153000FEE7FEE7FEE7FEE7FEE77047704770470D
:1015400000F000B90120704708B502F0DBFA16235D
:1015500003604FF0FF3008BD08B502F0D3FA162340
:101560000360FEE770B50D4614460E46731B9C42A1
:1015700001DC204670BDAFF3008006F8010BF5E7F3
:101580004FF0FF3070474FF4005300204B6070471E
:1015900001207047002070470B4A0346116810B5C0
:1015A00009B90A491160106809490A4C0344091B2A
:1015B0008B4206D902F0A6FA0C2303604FF0FF30ED
:1015C00010BD1360FCE700BF780200201805002062
:1015D00000500020000400007047000008B54FF4E0
:1015E000E1330A480A4AC0E9002300230C22C0E97B
:1015F0000233C0E905230361C36101F05FF818B14C
:10160000BDE80840FFF712BF08BD00BF7C02002004
:101610000038014010B5044686B01022002102A80F
:1016200002F00EFA2268174B9A4228D103F558436C
:101630009A69154842F480429A619A6902A902F4B3
:1016400080420092009A9A6942F004029A619B6972
:101650004FF4007203F004030193019B0223CDE9D0
:1016600002230323059300F0E7F84FF48061002381
:101670000548CDE9021302A9049300F0DDF806B095
:1016800010BD00BF0038014000080140FFF7A4FF73
:101690000B480C490C4A002302E0D458C4500433D0
:1016A000C4188C42F9D3094A094C002301E01360A5
:1016B0000432A242FBD302F02BFAFFF771FE70470F
:1016C00000000020D40100201C600008D40100208C
:1016D00014050020FEE7000038B50E4B05461A78C9
:1016E0004FF47A73B3FBF2F30B4A1068B0FBF3F0DC
:1016F00000F08EF8044658B90F2D09D80246294645
:101700004FF0FF3000F054F82046044B1D6038BD08
:101710000120FCE704000020000000200800002059
:10172000074A08B51368032043F01003136000F064
:101730002DF80F20FFF7D0FFFFF7D8FE002008BDDF
:1017400000200240034A044B11681B780B441360CD
:10175000704700BFC402002004000020014B18683D
:10176000704700BFC402002038B50446FFF7F6FFFB
:101770000546631C1EBF044B1B78E418FFF7EEFF01
:10178000431BA342FAD338BD0400002007490302DB
:10179000CA6803F4E06322F4E0621204120C1343FB
:1017A00043F0BF6343F40033CB60704700ED00E0CB
:1017B000154B30B5DC68C4F30224C4F10703251DC2
:1017C000042B28BF0423062D4FF0FF3594BF0024BF
:1017D000033C05FA03F321EA0303A54022EA0502CC
:1017E000A340002843EA0203ACBF00F16040074A6F
:1017F0004FEA0313DBB2ABBF00F5614000F00F000E
:1018000080F80033135430BD00ED00E014ED00E02B
:101810000138B0F1807F0BD24FF0E023F021054A70
:10182000586182F823100020072298611A617047DE
:101830000120704700ED00E02DE9F74F00244FF044
:101840000F0E2646DFF884C1614B00F104080A68D8
:1018500032FA06F502D103B0BDE8F08F012505FA92
:1018600006F702EA070537EA020276D14A68032A38
:1018700007D8013A022A00F28380DFE802F091964D
:101880009C00122A00F0948069D8112A00F08A8006
:10189000FF2D94BF8146C1464FEA8602D9F80070F9
:1018A00088BF203A0EFA02FA27EA0A0704FA02F27F
:1018B0001743C9F80070D1F8049019F0805F4CD03C
:1018C000DCF8182026F0030742F00102CCF81820BB
:1018D000DCF8182007F1804702F00102019207F5B9
:1018E000803706F0030A019A4FEA8A0ABA680EFAAC
:1018F0000AFB22EA0B0B374A904260D002F5806265
:1019000090425ED002F5806290425CD002F5806227
:10191000904214BF0422032202FA0AF242EA0B02A6
:10192000BA609A6819F4801F14BF2A43AA439A60C8
:10193000DA6819F4001F14BF2A43AA43DA605A6810
:1019400019F4003F14BF2A43AA435A601A6819F4D5
:10195000803F14BF2A43AA431A60013677E7DFF8B5
:1019600078904A450CD014D8A9F580194A4507D07B
:1019700009F570294A4503D0A9F580194A4587D150
:101980008A68D2B1012A4FF008040CBF0761476191
:101990007EE7DFF848904A45F2D009F58039EDE757
:1019A000CC6875E7CC68043472E7CC6808346FE71C
:1019B000CC680C346CE700246AE7042468E7002252
:1019C000AAE70122A8E70222A6E700BF0010024012
:1019D0000004014000080140000022100000311006
:1019E0000AB1016170470904FBE700002DE9F341EA
:1019F000054638B30368DB0710D42B689F075ED415
:101A00002B68190700F195802B685A0700F1C180F7
:101A1000EB69002B40F02C81002029E0904C63689A
:101A200003F00C03042B07D0636803F00C03082BAE
:101A30000AD16368DE0307D523689C03DDD56B6894
:101A4000002BDAD1012013E06B68B3F5803F12D18F
:101A5000236843F480332360FFF780FE0646236843
:101A60009803CAD4FFF77AFE801B6428F7D90320B5
:101A700002B0BDE8F0819BB9236823F48033236072
:101A8000236823F480232360FFF768FE064623685B
:101A90009903B2D5FFF762FE801B6428F7D9E6E709
:101AA000B3F5A02F236803D143F480232360CFE74D
:101AB00023F480332360236823F48023CBE7684C2E
:101AC000636813F00C0F07D0636803F00C03082B56
:101AD00010D16368DA030DD423689B0702D52B6904
:101AE000012BAFD123686A6923F0F80343EAC203EC
:101AF000236085E72A695B4B6AB101221A60FFF710
:101B00002DFE064623689F07ECD4FFF727FE801BB7
:101B10000228F7D9ABE71A60FFF720FE06462368D4
:101B200098077FF56DAFFFF719FE801B0228F6D9E5
:101B30009DE7AA694A4E4B4BE2B10122C3F88024CB
:101B4000FFF70CFE0446736A9B070DD54FF4FA525B
:101B5000454B1B68B3FBF2F3019300BF019B5A1E78
:101B60000192002BF9D14FE7FFF7F8FD001B022887
:101B7000E9D97CE7C3F88024FFF7F0FD0446736AD7
:101B80009F077FF541AFFFF7E9FD001B0228F6D95B
:101B90006DE7334CE369D80024D40127E36943F0AF
:101BA0008053E361E36903F080530093009B2F4E61
:101BB0003368D90518D5EB68012B26D1236A43F089
:101BC00001032362FFF7CAFD41F288380646236A03
:101BD0009B073FD5002F3FF41BAFE36923F08053F1
:101BE000E36115E70027E2E7336843F4807333606D
:101BF000FFF7B4FD80463368DA05DCD4FFF7AEFDAD
:101C0000A0EB08006428F6D931E7ABB9236A41F2AA
:101C1000883823F001032362236A23F0040323623C
:101C2000FFF79CFD0646236A9807D3D5FFF796FD7C
:101C3000801B4045F7D91AE7052B236A03D143F0EF
:101C400004032362BAE723F001032362236A23F02B
:101C50000403B6E7FFF782FD801B4045B7D906E7CE
:101C600000100240000042420000002000700040CE
:101C70002A4C626802F00C02082A3ED00022022B95
:101C8000274B1A662CD1FFF769FD06462368990198
:101C900020D42B6AB3F5803F05D16268A96822F48D
:101CA00000320A436260696A62680B4322F474126C
:101CB0001343012263601A4B1A66FFF74FFD054676
:101CC00023689A013FF5A8AEFFF748FD401B0228A4
:101CD000F6D9CCE6FFF742FD801B0228D6D9C6E62E
:101CE000FFF73CFD054623689B017FF595AEFFF7A6
:101CF00035FD401B0228F6D9B9E6012B3FF4A2AE10
:101D000060682B6A00F480329A427FF49BAE6B6A63
:101D100000F47010C01A18BF0120A9E6001002409C
:101D2000000042420D4A536803F00C01082912D109
:101D30000B48C3F38341DB03405C09D55368094A70
:101D4000C3F340435043084AD35CB0FBF3F0704701
:101D5000064B584370470348704700BF00100240CD
:101D6000EE5D000800127A00EC5D000800093D00FD
:101D70002DE9F0410D46044610B90120BDE8F0817F
:101D8000444A136803F007038B4228D321688E0767
:101D900030D4CA0743D43F4A136803F00703AB4269
:101DA00065D822683C4D12F0040F6CD1130706D59C
:101DB0006B68226923F4605343EAC2036B60FFF748
:101DC000B1FF6B68354AC3F30313D35CD840344B7F
:101DD0001860344B1868FFF77FFC0020CEE71368CB
:101DE00023F007030B431360136803F007038B42D0
:101DF000C3D1CBE7284B11F0040F1EBF5A6842F441
:101E0000E0625A60080742BF5A6842F460525A6062
:101E10005A68A06822F0F00202435A60B9E762688B
:101E20001D4E012A33681AD113F4003FA5D0736800
:101E300041F2883823F0030313437360FFF78EFCED
:101E400007467368626803F00C03B3EB820FA2D0FD
:101E5000FFF784FCC01B4045F3D903208EE7022A1C
:101E600002D113F0007FE1E713F0020FDEE7136801
:101E700023F007032B431360136803F00703AB42FF
:101E80007FF47BAF8DE76B68E16823F4E0630B437D
:101E90006B608BE70020024000100240DC5D000810
:101EA0000000002008000020014B1868704700BFA8
:101EB00000000020044B054A5B68C3F30223D35C97
:101EC000034A1068D840704700100240D45D0008F3
:101ED00000000020044B054A5B68C3F3C223D35CB7
:101EE000034A1068D840704700100240D45D0008D3
:101EF000000000202DE9F3471F468946904604461E
:101F0000FFF72CFC0A9D3D442D1AFFF727FC824663
:101F1000254B1E68C6F3CB366E4301962268936844
:101F200039EA03030CBF01230023434501D10020FC
:101F30002EE07B1CF3D0FFF711FCA0EB0A00A842B7
:101F400029D323685A6822F0E0025A606268B2F529
:101F5000827F0AD1A268B2F5004F02D0B2F5806F3D
:101F600003D11A6822F040021A60A26AB2F5005F3B
:101F700007D11A6822F400521A601A6842F400521B
:101F80001A60012384F851300023032084F8503074
:101F900002B0BDE8F087019A019B002A03F1FF33EC
:101FA00008BF15460193B9E70000002073B50B4642
:101FB00000920D461646022101220446FFF79AFFC1
:101FC000024628B1636D032043F02003636507E0F8
:101FD0002B46802120460096FFF78CFF0028F1D188
:101FE00002B070BD37B50B4641680446B1F5827F3B
:101FF00018D18168B1F5004F02D0B1F5806F11D1D1
:102000002568B1F5806F286820F04000286009D16C
:102010000092012100222046FFF76CFF30B900201A
:1020200003B030BD009280210022F4E7636D0320ED
:1020300043F020036365F3E710B50446002851D050
:10204000436A002B4AD14268B2F5827F00D0C36157
:102050000023A36294F8513003F0FF0223B9204615
:1020600084F85020FFF708FA0223226884F85130E0
:102070001368A06823F040031360636800F4044011
:1020800003F482730343E068A16900F40060034332
:10209000206900F002000343606900F0010003437F
:1020A00001F400700343E069090C00F038000343B9
:1020B000206A01F0040100F080000343A06A00F4EC
:1020C0000050034313605160D369002023F4006380
:1020D000D3610123606584F8513010BD0023C0E94D
:1020E0000433B5E70120F8E72DE9F74304461F461E
:1020F0000D469046FFF732FB94F851308146012B94
:10210000D8B240F09F80002D74D0B8F1000F71D08C
:1021100094F85030012B00F09580032384F851305F
:1021200000236365C4E91033A4F83680A363A38752
:10213000E387A3682668B3F5004F84F85000256351
:10214000A4F8348007D1336823F040033360336848
:1021500043F4804333603368E2685B065EBF3368F4
:1021600043F040033360B2F5006F636845D113B1AB
:10217000B8F1010F07D135F8023BF3602563E38E18
:10218000013B9BB2E386E38E9BB2D3B94A46394604
:102190002046FFF70BFF002851D1A36833B9019304
:1021A0002368DA6801929B680193019B012384F8FC
:1021B00051300023606D84F85030C01A18BF0120E0
:1021C00018E022689368980705D5236B33F8021B43
:1021D000D1602363D3E7FFF7C1FAA0EB0900B8424F
:1021E000D1D3791CCFD0012384F8513000230320B0
:1021F00084F8503003B0BDE8F08313B1B8F1010F9B
:1022000008D12B783373236B01332363E38E013BB7
:102210009BB2E386E38E9BB2002BB7D023689A680B
:10222000920703D5226B12781A73ECE7FFF796FA40
:10223000A0EB0900B842EDD37B1CEBD0D3E7202301
:102240006365AAE70220D5E72DE9F74304460D466A
:1022500091461E46DDF82880FFF780FA94F8513049
:102260000746012B6268D9B20AD0B2F5827F40F0EE
:10227000E580A368002B40F0E180042940F0DE8077
:10228000002D4BD0B9F1000F48D0002E46D094F865
:102290005030012B00F0D280012384F8503094F8A4
:1022A0005130C4F83890042B1CBF052384F85130FA
:1022B00000236365C4E910332368E687E68619685E
:1022C000A687490658BF1968256358BF41F04001E9
:1022D000A68658BF1960E168B1F5006F55D10AB103
:1022E000012E07D135F8022BDA60E38E2563013B1E
:1022F0009BB2E3860125E38E9BB28BB9E38F9BB241
:1023000073B93A4641462046FFF750FE002800F0D8
:10231000818020236365002384F85030012031E060
:1023200021688B689A070DD5E38E9BB253B145B1F6
:10233000236B33F8022BCA602363E38E013B9BB20D
:10234000E38600258A6812F001020CD0E38F9BB26D
:102350004BB11546C968A36B23F8021BA363E38F37
:10236000013B9BB2E387FFF7F9F9C01B4045C2D39D
:10237000B8F1FF3FBFD0012384F851300023032080
:1023800084F8503003B0BDE8F0830AB1012E08D1C3
:102390002A781A73236B01332363E38E013B9BB2CC
:1023A000E38601252DE0226893689B070ED5E38E16
:1023B0009BB25BB14DB1236B1B781373236B01335D
:1023C0002363E38E013B9BB2E3860025226891687C
:1023D00011F001010DD0E38F9BB253B10D46D268CD
:1023E000A36B1A70A36B0133A363E38F013B9BB212
:1023F000E387FFF7B3F9C01B404502D3B8F1FF3FB5
:10240000B9D1E38E9BB2002BCDD1E38F9BB2002BD1
:10241000C9D176E7A36833B901932368DA680192DA
:102420009B680193019B012384F851300023606D68
:1024300084F85030C01A18BF0120A3E70220A1E79A
:102440002DE9F7431E4690F851300446012B89468A
:102450001746DDB204D00225284603B0BDE8F0835C
:102460004368B3F5827F0BD183684BB9042380F8AE
:102470005130134600960A46FFF7E6FE0546EBE7A5
:10248000FFF76CF98046B9F1000FE5D0002FE3D0DB
:1024900094F85030012BDED00123002584F8503011
:1024A0000423A26884F85130B2F5004F6565C4E991
:1024B0001055E7872368C4F83890A7872563A58659
:1024C000E58607D11A6822F040021A601A6822F4E1
:1024D00080421A601A6855065EBF1A6842F04002D0
:1024E0001A60E368F3B1E38F9BB2FBB123689A688B
:1024F000D2073CD5DA68A36B23F8022BA363E38FE2
:10250000013B9BB2E387EEE723689A68D0071ED5AC
:102510001B7BA26B1370A36B0133A363E38F013B9F
:102520009BB2E387E38F9BB2002BEDD1424631464D
:102530002046FFF757FD18BB012384F851300023D4
:10254000656D84F85030ED1A18BF012584E7FFF758
:1025500005F9A0EB0800B042E4D3711CE2D00123DE
:1025600084F851300023032584F8503074E7FFF7D6
:10257000F5F8A0EB0800B042B5D3731CB3D0EEE77A
:1025800020236365D8E7026802F10C0353E8003F9B
:1025900023F490730C3242E8003102680029F2D132
:1025A00002F1140353E8003F23F0010302F1140C7D
:1025B0004CE800310029F3D1036B012B0BD102F160
:1025C0000C0353E8003F23F0100302F10C0C4CE81D
:1025D00000310029F3D1202380F842300023036327
:1025E0007047000010B504460368C1681A6922F4F8
:1025F00040520A431A6182680069D96802436069DF
:1026000021F4B05121F00C0102430A43DA605A6907
:10261000A16922F440720A435A610E4A934215D1CD
:10262000FFF758FC19234343626820689200B3FB0C
:10263000F2F36422B3FBF2F102FB11331B013233DC
:10264000B3FBF2F303EB0113836010BDFFF732FC21
:10265000E8E700BF00380140F7B505460C461746CD
:102660001E462A68136834EA030301D1002021E0E2
:10267000701CF7D0FFF772F8C01B86421CD3DEB186
:102680002B68DA685107ECD5802CEAD0402CE8D0D2
:102690001A681207E5D5002401941A6828460192A9
:1026A0005B680193019BFFF76EFF082301206B64B9
:1026B00085F8404003B0F0BD0320FBE710B50446A9
:1026C00048B390F8413003F0FF021BB980F8402076
:1026D000FEF7A0FF2423226884F84130D368204607
:1026E00023F40053D360FFF77DFF236800201A69AD
:1026F00022F490421A615A6922F02A025A61DA6879
:1027000042F40052DA602023606484F8413084F897
:102710004230606310BD0120FCE72DE9F843984684
:1027200090F841300446202B0E4617463FD1002931
:102730003FD0002A3DD021230025456480F8413058
:10274000FFF70CF8A3688146B3F5805FA784E784A0
:1027500003D123690BB935461E46E38C9BB253B9AE
:1027600043464A4640212046FFF776FF202350B9D2
:1027700084F841300AE043464A4680212046FFF76C
:102780006BFF28B12023032084F84130BDE8F88393
:1027900022684EB935F8023BC3F308035360E18C5D
:1027A000013989B2E184D8E716F8013BF6E7022047
:1027B000ECE70120EAE773B51646044630B32AB3C6
:1027C00003681BB30023ADF80430436801F07F01B8
:1027D0008DF8031003B19847E3680BB101209847C7
:1027E00002232568204601AA0DF10301A847E368EA
:1027F00005460BB101209847A36803B1984715B966
:102800009DF805303370284602B070BD0125FAE707
:1028100073B51646044648B342B3036833B3002386
:10282000ADF804308DF80630436801F07F018DF873
:10283000031003B19847E3680BB1012098470323C5
:1028400025680DEB0301204601AAA847E368054669
:102850000BB101209847A36803B198471DB9BDF893
:1028600005305BBA3380284602B070BD0125FAE717
:1028700037B50446F8B10368EBB1436861F07F01F6
:102880008DF800108DF8012003B19847E3680BB173
:1028900001209847022325686946204601AAA847D7
:1028A000E36805460BB101209847A36803B1984738
:1028B000284603B030BD0125FAE737B50D4604467A
:1028C00010B9012003B030BD00210DF107028DF8D1
:1028D0000710FFF770FF0028F3D19DF80720012DA6
:1028E0000CBF42F0100202F0EF02002120468DF8EA
:1028F0000720FFF7BDFF0028E3D184F82450E1E76B
:1029000037B50D46044610B9012003B030BD002193
:102910000DF107028DF80710FFF74DFF0028F3D1E6
:102920009DF80720012D0CBF42F0010202F0FE02CB
:10293000002120468DF80720FFF79AFF0028E3D1F9
:1029400084F82550E1E737B50D460446B0B10021C3
:102950000DF107028DF80710FFF72DFF70B99DF8F4
:10296000072045B142F080020021204603B0BDE8B7
:102970003040FFF77DBF02F07F02F5E7012003B092
:1029800030BD37B50D460446B0B100210DF1070248
:102990008DF80710FFF70FFF70B99DF8072045B1BC
:1029A00042F040020021204603B0BDE83040FFF76E
:1029B0005FBF02F0BF02F5E7012003B030BD13B5E1
:1029C0000446A0B100210DF107028DF80710FFF7B2
:1029D000F2FE014658B920469DF8072022F02C024D
:1029E00042F0020202B0BDE81040FFF741BF0120F3
:1029F00002B010BD70B50E461546044608B9012058
:102A000070BD0A0A0521FFF733FF0028F7D1062120
:102A10002046F2B2FFF72CFF0028F0D10321204618
:102A20002A0AFFF725FF0028E9D104212046EAB24F
:102A3000FFF71EFF003818BF0120E1E7F7B59C46FD
:102A40000D461746044610B9012003B0F0BD002919
:102A5000FAD006460FCD0FC62B6800223360089BC4
:102A6000C4F81CC02362002384F82530E384A385C6
:102A7000A36884F82470A26203B19847E3680BB19D
:102A80000A209847002120460DF107028DF8071013
:102A9000FFF791FE0028D7D12046FFF790FF394677
:102AA0002046FFF70AFF01460028CDD12046FFF758
:102AB0004AFF01460028C7D12046FFF762FF0146C2
:102AC0000028C1D147F6FF722046FFF793FF002888
:102AD000BAD1012384F82630B7E70A4618B111B1FC
:102AE0000721FFF768BE0120704773B50E46044604
:102AF00018B90125284602B070BD0029F9D0FFF7AA
:102B00005EFF01212046FFF71EFF0028F1D1E36898
:102B10000BB10A2098470021204601AA8DF8041025
:102B2000FFF749FE01460028E3D19DF80420204626
:102B300042F020028DF80420FFF79AFE0028D8D139
:102B4000E3680BB1412098470023012120460DF195
:102B50000602ADF80630FFF75BFE05460028C8D137
:102B600001462046FFF7EFFEBDF806305A08DB07A6
:102B70003280A285BED520460DF105018DF80550A5
:102B8000FFF7ABFF9DF80530032584F82730B1E748
:102B900073B50D460646C0B1B9B100230DF106016B
:102BA000ADF80630FFF7A1FF044658B9BDF806009E
:102BB000FEF720F8F169FEF775F84FF06051FEF767
:102BC00071F82860204602B070BD0124FAE70000C9
:102BD00070B505462C480E46FEF718F92946FEF753
:102BE00061F82A49FDF756FF02F0D8FD2849FDF7A4
:102BF0004FFF2849FEF70AF900210446FEF704FAC0
:102C000000283FD131462846FEF700F92249FEF759
:102C100049F822490446FEF745F82149FDF738FFF7
:102C2000214605462046FEF73DF81E490646FEF7BA
:102C300039F82946FDF72EFF314605462046FEF7B6
:102C400031F819490646FEF72DF801462846FDF7EA
:102C50001FFF314605462046FEF724F81349064675
:102C6000FEF720F801462846FDF712FF05463146DB
:102C70002046FEF717F80E49FEF714F82946FDF72F
:102C800009FF0446204670BD7F051BB616839337A7
:102C90003211803B7F059BB50000C8425B420E406D
:102CA0001F0572433478293B06EFA1361317F23221
:102CB0003B99272F73B50E460546E0B1D9B10023E5
:102CC0000DF10601ADF80630FFF70FFF044678B9A5
:102CD000BDF80600FDF78EFFE969FDF7E3FF4FF051
:102CE0006051FDF7DFFF296AFFF772FF3060A862CD
:102CF000204602B070BD0124FAE7000010B50023A1
:102D00000446154803702CB3220602D5134900F07F
:102D10009FFE630603D512490F4800F099FEA006F6
:102D200003D510490C4800F093FEE10603D50E4987
:102D3000094800F08DFE220703D50C49064800F033
:102D400087FE630701D4044810BD0949024800F01A
:102D50007FFEF8E70748F7E7C8020020E05B0008BD
:102D6000F55B0008095C0008205C0008375C00087F
:102D70004E5C0008D65B0008002B2DE9F0471D468D
:102D8000BBBF03F100431D4600232D2388B014462A
:102D9000B8BF1446129A109E1370149BDDF84CA015
:102DA00023F02008B8F1460F05D0B8F1450F00D147
:102DB0000136022300E0032307AA049206AACDE904
:102DC00002A2CDE9003622462B4600F061FFB8F1A1
:102DD000470F074619D1119BDB070ED500EB0609FB
:102DE0000022002320462946FDF7DEFD08B1CDF87C
:102DF0001C903022079B4B451ED33846079B159AE3
:102E0000DB1B136008B0BDE8F087B8F1460F00EB9C
:102E10000609E5D10378302B0AD100220023204691
:102E20002946FDF7C1FD18B9C6F10106CAF80060D0
:102E3000DAF800309944D3E7591C07911A70D9E7A2
:102E4000F7B50029B6BF2D232B234942092902706B
:102E5000437029DD0DF107031D460A27B1FBF7F684
:102E60001A4607FB1614303402F8014C0C46632C4A
:102E7000314603F1FF33F1DC3031941E03F8011CBD
:102E80002346411CAB420AD30DF109039B1AAC4205
:102E900088BF002302330344181A03B0F0BD13F8AF
:102EA000016B01F8016FEDE7302330318370C170A1
:102EB000031DF1E72DE9F04F91B00C46DDF8688075
:102EC00016461F46054600F0D3FD036818460893D2
:102ED000FDF73EF900230E93D8F800300990073330
:102EE00023F0070303F1080294F818A0D4F800B007
:102EF000C8F80020D3E9008929F000430B93CDF8EE
:102F000028804FF0FF32DDE90A01C4E912899C4BA9
:102F1000FDF77CFD70BBDDE90A014FF0FF32984BF5
:102F2000FDF756FD30BB0022002340464946FDF721
:102F300045FD10B12D2384F84330924A924BBAF1EB
:102F4000470F8CBF9046984603234FF0000923613A
:102F50002BF00403236033462146284600970FAA2E
:102F600000F0D4F9013040F090804FF0FF3011B004
:102F7000BDE8F08F42464B4640464946FDF746FDC8
:102F800048B14B46002BB8BF2D23804AB8BF84F808
:102F900043307F4BD3E763680AF0DF015A1C3FD10F
:102FA0000623636000224BF48063236006920EAA1E
:102FB000CDE904A20DAA03920DF13302CDE901324D
:102FC00063684246009328464B460A91FFF7D4FEB9
:102FD0000A99804647290D9928D1C81C02DB6368ED
:102FE000994240DDAAF1020A5FFA8AFA5246013993
:102FF00004F150000D91FFF723FF0E9A814613183C
:10300000012A236102DC2268D20701D50133236142
:103010009DF83330002B9ED02D2384F843309AE75F
:103020004729BFD1002BBDD10123BAE7BAF1650F03
:10303000DCD9BAF1660F18D1002963680BDD216174
:1030400013B92268D00702D501330B4423614FF036
:103050000009A165DCE713B92268D20701D5023364
:10306000F4E70123F2E74FF0670A0E9B994205DB74
:1030700023682161D807EAD54B1CE7E70029CCBFBC
:103080000122C1F102021344E0E723685A0507D484
:103090002369424631462846B84701302BD164E7C0
:1030A000BAF1650F40F2DC80D4E91201002200235E
:1030B000FDF77AFC002833D0012331462846354AF3
:1030C000B84701303FF451AFDDE90D38434502DB2D
:1030D0002368D8070FD5DDE9082331462846B847CD
:1030E00001303FF442AF4FF0000908F1FF3804F11E
:1030F0001A0AC84509DC23689B0700F10281E068D1
:103100000F9B9842B8BF184631E70123524631461B
:103110002846B84701303FF428AF09F10109E8E734
:103120000D9B002B38DC012331462846194AB8474D
:1031300001303FF41AAFDDE90D3959EA030302D13A
:103140002368D907D7D5DDE9082331462846B84793
:1031500001303FF40AAF4FF0000A04F11A0B0D9B47
:103160005B42534501DC4B4693E701235A46314607
:103170002846B84701303FF4F8AE0AF1010AEEE7FD
:10318000FFFFEF7F675C0008635C00086F5C00086E
:103190006B5C0008735C0008A36DDDF838A0534534
:1031A000A8BF5346002B994636DC4FF0000B29EAA6
:1031B000E97904F11A02A36D0A93A3EB09035B45B5
:1031C00031DC0D9B9A453ADC2368DA0737D40D9B36
:1031D000AAEB03090A9BAAEB03039945A8BF9946EA
:1031E000B9F1000F33DC4FF0000829EAE97904F166
:1031F0001A0B0D9BAAEB0303A3EB090343457FF7CF
:103200007AAF01235A4631462846B84701303FF489
:10321000ACAE08F10108ECE7424631462846B84713
:103220000130C2D1A1E60123314628460A92B847AF
:1032300001303FF49AAE0A9A0BF1010BBBE731461D
:10324000DDE908232846B8470130C0D18DE60A9A47
:103250004B46314628464244B8470130C3D184E644
:10326000DDF838A0BAF1010F01DCDB0736D5012308
:10327000424631462846B84701303FF476AEDDE994
:10328000082331462846B84701303FF46EAED4E9F2
:103290001201002200230AF1FF3AFDF785FBC0B9B5
:1032A000534608F1010231462846B84701300CD197
:1032B0005BE601235A4631462846B84701303FF4C1
:1032C00054AE08F10108D045F3DB4B4604F150023F
:1032D000E0E64FF0000804F11A0BF4E70123424640
:1032E000E1E701234A4631462846B84701303FF41A
:1032F0003CAE08F10108E3680F995B1A4345F0DC26
:10330000FDE64FF0000804F11909F4E72DE9F04754
:10331000164698468A680B6907469342B8BF13461B
:10332000336091F843200C46DDF820900AB1013358
:1033300033602368990642BF3368023333602568DF
:1033400015F0060506D104F1190AE36832689B1AE4
:10335000AB422BDC94F843302268003B18BF0123BA
:10336000920630D44146384604F14302C847013042
:1033700023D02368226903F00603042B14BF002521
:1033800033684FF0000608BFE56804F11A0408BF6F
:10339000ED1A54F8123C08BF25EAE5759342C4BF04
:1033A0009B1AED18B5421AD1002008E001235246BD
:1033B00041463846C847013003D14FF0FF30BDE8E1
:1033C000F0870135C1E73020E11881F843005A1C2D
:1033D00094F845102244023382F84310C2E70123D7
:1033E000224641463846C8470130E6D00136D9E783
:1033F0002DE9FF470F7E9146782F80460C469A466E
:103400000C9E01F1430207D8622F0AD8002F00F06A
:10341000D180582F00F0B88004F1420684F8427041
:103420003AE0A7F16303152BF6D801A151F823F078
:10343000893400089D340008193400081934000844
:1034400019340008193400089D34000819340008A4
:103450001934000819340008193400089B35000895
:10346000C73400085535000819340008193400081D
:10347000BD35000819340008C734000819340008A5
:10348000193400085D35000833681A1D1B68326066
:1034900004F1420684F8423001239CE0336820683E
:1034A000191D3160060601D51D6803E04506FBD5F0
:1034B000B3F90050002D03DA2D236D4284F8433018
:1034C0000A23584811E021683368080653F8045B62
:1034D00002D4490648BFADB26F2F336014BF0A2330
:1034E00008235048002184F843106668002EA66027
:1034F00005DB21682E4321F0040121604BD01646E4
:10350000B5FBF3F103FB1157C75D06F8017D2F46AC
:10351000BB420D46F4D9082B0BD12368DF0708D531
:10352000236961689942DEBF302306F8013C06F149
:10353000FF36921B22614B4621464046CDF800A043
:1035400003AAFFF7E3FE01304AD14FF0FF3004B089
:10355000BDE8F087236843F02003236078273248D2
:1035600084F84570236831681F0651F8045B02D463
:103570005F0648BFADB23160D90744BF43F02003B6
:1035800023601DB11023ADE72648E9E7236823F047
:1035900020032360F6E71646BDE733682568181D4B
:1035A000616930602E061B6801D5196002E068066B
:1035B000FBD51980002316462361BCE73368002140
:1035C0001A1D32601E686268304600F0C8FA08B101
:1035D000801B606063682361002384F84330AAE79E
:1035E0003246494640462369D0470130ADD0236872
:1035F0009B0713D4E068039B9842B8BF1846A6E720
:103600000123324649464046D04701309DD001351E
:10361000E36803995B1AAB42F2DCEBE7002504F1A7
:103620001906F5E7755C0008865C0008002310B5F4
:103630000446C0E90033C0E90433836081814366F6
:10364000C2818361194608225C3000F0F9F90D4B04
:10365000246263620C4BA3620C4BE3620C4B23634A
:103660000C4B9C4206D003F16802944202D0D03346
:103670009C4205D104F15800BDE8104000F06CBA3E
:1036800010BD00BF91380008B3380008EB380008BF
:103690000F390008C8030020024A0349034800F01C
:1036A00069B800BF0C000020A95400081C000020CD
:1036B00041680C4B10B59942044601D001F0F4FE6C
:1036C000A168094B994202D0204601F0EDFEE16865
:1036D000064B994204D02046BDE8104001F0E4BEFC
:1036E00010BD00BFC8030020300400209804002053
:1036F00010B50B4B0B4C0C4A20461A6004210022DB
:10370000FFF794FF04F1680001220921FFF78EFF03
:1037100004F1D0000222BDE810401221FFF786BF5D
:1037200000050020C803002099360008014800F079
:1037300014BA00BF09050020014800F00FBA00BF0D
:103740000905002010B50446FFF7F0FF236A1BB1FE
:10375000BDE81040FFF7F0BF044B2362044B1B6829
:10376000002BF5D1FFF7C4FFF2E700BFB136000828
:10377000000500202DE9F843074688461446002638
:10378000D4E90195B9F1010905D52468002CF7D1D8
:103790003046BDE8F883AB89012B07D9B5F90E3067
:1037A000013303D029463846C04706436835E9E768
:1037B0000FB407B5064904AB086853F8042B8168B9
:1037C000019301F0D9FC03B05DF804EB04B070473D
:1037D00018000020036A70B505460E4684680BB9D0
:1037E000FFF7B0FF636EDB0705D4A389980502D409
:1037F000A06D00F0B2F9A389190702D52369002B47
:1038000035D12146284600F0C5F880B34FF0FF358A
:10381000636EDA0705D4A3899B0502D4A06D00F07E
:103820009DF9284670BD002B04DAA2699A4217DC84
:103830000A2915D023685A1C22601970A36816F84B
:10384000011F013BA3600029EDD1002B11DA2246B4
:103850000A21284600F05FF80130D7D00A25D7E7C3
:103860002246284600F057F80130E7D1CEE7013E66
:10387000E4E723685A1C22600A221A70EEE700006F
:10388000024B01461868FFF7A5BF00BF18000020D3
:1038900010B50C46B1F90E1000F010F90028ABBFBE
:1038A000636DA3891B1823F48053ACBF6365A381A8
:1038B00010BD2DE9F0411F468B890546DB050C46FE
:1038C000164605D502230022B1F90E1000F0E4F8E7
:1038D000A389324623F48053A38128463B46B4F99A
:1038E0000E10BDE8F04100F0FBB810B50C46B1F980
:1038F0000E1000F0D1F8431CA38915BF606523F4B6
:10390000805343F48053A38118BFA38110BDB1F944
:103910000E1000F0B1B8F8B50E461446054618B1C1
:10392000036A0BB9FFF70EFFA369A360A3891A0707
:1039300001D5236943B92146284600F02BF818B178
:103940004FF0FF373846F8BD23682269F6B2981A5F
:1039500063693746834205DC2146284601F0A4FD11
:103960000028EDD1A368013BA36023685A1C2260A4
:103970001E706269431C9A4204D0A389DB07E1D51B
:103980000A2EDFD12146284601F08EFD0028D9D02D
:10399000D6E7000038B5294B054618680C4618B123
:1039A000036A0BB9FFF7CEFEB4F90C30190722D425
:1039B000DA0607D409222A6043F040034FF0FF30B3
:1039C000A38133E0580712D5616B41B104F1440380
:1039D000994202D0284600F02FFF00236363A38999
:1039E00023F02403A3810023636023692360A38958
:1039F00043F00803A38123694BB9A38903F420731F
:103A0000B3F5007F03D02146284601F09AFDB4F9B2
:103A10000C3013F001020AD00022A2606269524207
:103A2000A261226942B913F08000C5D138BD99075F
:103A300058BF6269A260F4E70020F7E71800002091
:103A400003460244934200D1704703F8011BF9E793
:103A5000024610B5147813460132002CFAD1013B0E
:103A600011F8012B03F8012F002AF9D110BD000035
:103A7000004870475801002038B50023054D044622
:103A800008462B60FDF77CFD431C02D12B6803B177
:103A9000236038BD0405002038B5044608461146A9
:103AA0000022054D2A601A46FDF774FD431C02D121
:103AB0002B6803B1236038BD0405002038B50446E7
:103AC000084611460022054D2A601A46FDF74AFDB8
:103AD000431C02D12B6803B1236038BD04050020CC
:103AE00038B50446084611460022054D2A601A469C
:103AF000FDF73EFB431C02D12B6803B1236038BDA8
:103B000004050020014B1868704700BF1800002012
:103B100070B500260C4D0D4C641BA410A64209D1B3
:103B200001F0C6FE00260A4D0A4C641BA410A642F2
:103B300005D170BD55F8043B98470136EEE755F8BE
:103B4000043B98470136F2E714600008146000084F
:103B500014600008186000087047704770470346FB
:103B600010B5C9B202449342184601D1002003E0C7
:103B7000047801338C42F6D110BD2DE9F74F03696B
:103B80000C690746A3427EDB013CA30000F114054B
:103B900001F11408009305EB8403019358F82430D5
:103BA00055F8242001339A42B2FBF3F608EB84095E
:103BB0002ED34FF0000AC446AE46D3465CF8043B11
:103BC00098B206FB00A01B0C020C06FB0323DEF8D8
:103BD000002080B292B2121A5A44DEF800004FEA76
:103BE000134A9BB2C3EB224303EB104392B242EA67
:103BF0000342E1454FEA234B4EF8042BDED2009BF3
:103C0000EB582BB9019B043B9D421A462FD33C61D4
:103C1000384601F081F9002825DB2946002058F8B4
:103C2000042BD1F800C01FFA82FE1FFA8CF3A3EB1D
:103C30000E030344120CC2EB234202EB1C429BB264
:103C400043EA0243C1454FEA224041F8043BE6D231
:103C500055F8242005EB840322B9043B9D421A4603
:103C60000BD33C610136304603B0BDE8F08F1268DB
:103C7000043B002ACBD1013CC6E71268043B002A72
:103C8000EFD1013CEAE70020EEE700000000000071
:103C90002DE9F04F14461D46C76997B08146CDE91E
:103CA0000645239E7FB9102000F00EFE0246C9F89B
:103CB0001C0020B9EF21AC4BAC4801F0BFFCC0E9BF
:103CC00001770760C760D9F81C30196859B15A6884
:103CD000012393404A608B60484600F0EBFE0022CF
:103CE000D9F81C301A602B1EAFBF0023012223F02D
:103CF00000430793A8BF3360DDF81C809C4BB8BF1E
:103D0000326033EA080312D142F20F73229A136031
:103D1000C8F31303234300F05E85249BDFF854A20D
:103D2000002B00F060850AF1030300F05ABDDDE9C5
:103D30000623CDE90C23DDE90C0100220023FCF76A
:103D400033FE074658B10123229A1360249B13B116
:103D5000894B249A1360DFF824A200F044BD14AB11
:103D6000019315AB00934846DDE90C2301F084F97B
:103D7000C8F30A560390002E78D0DDE90C010D9BA4
:103D8000A6F2FF36C3F3130343F07F5343F440130B
:103D90001297194600227A4BFCF7E6F96CA3D3E997
:103DA0000023FCF799FB6CA3D3E90023FCF7DEF9B1
:103DB000044630460D46FCF725FB69A3D3E90023F2
:103DC000FCF78AFB02460B4620462946FCF7CEF953
:103DD00004460D46FCF730FE00220746002320462D
:103DE0002946FCF7EBFD40B13846FCF70BFB2246B9
:103DF0002B46FCF7D9FD00B9013F162F54D8DDE959
:103E00000C01604B03EBC703D3E90023FCF7D6FD9D
:103E100000284BD00023013F0F93149B9B1B5A1E7D
:103E200049BFC3F10103002304930023099254BF47
:103E300004930993002F3BDB099B0E973B440993A6
:103E400000230A93209B092B65D8052BC4BF043B94
:103E50002093209BC8BF0024A3F10203D8BF0124F4
:103E6000032B64D8DFE803F05355382CDDE91463E5
:103E70001E4406F23243202BC1BFC3F1400308FAAF
:103E800003F806F2124324FA03F3D6BFC3F120036A
:103E900048EA030004FA03F0FCF7A4FA0122A1F1B6
:103EA000F873013E129274E70123B5E70F90B4E76F
:103EB000049BDB1B04937B420A9300230E93C1E710
:103EC00001230B93219B07EB030B0BF10103012B48
:103ED0000893B8BF012306E001230B93219B002B1D
:103EE00028DD9B46089300210422D9F81C0002F12A
:103EF00014059D4226D94160484600F09BFD82464C
:103F0000002843D1024640F2AF111F4BD4E60023F4
:103F1000E3E70023D5E7012400230B9420934FF01F
:103F2000FF3B00221223CDF820B02192DBE70123D2
:103F30000B93F4E74FF0010B5B46CDF820B0CDF8C2
:103F400084B0D0E701315200D1E700BFAFF3008069
:103F500061436F63A787D23FB3C8608B288AC63F8F
:103F6000FB799F501344D33FA45C0008BB5C00085E
:103F70000000F07FA05C0008745C0008735C00081F
:103F80000000F83F385E0008135D0008D9F81C30C7
:103F90001860089B0E2B00F2A180002C00F09E8080
:103FA000002F33DD9C4B07F00F0203EBC203F80533
:103FB000D3E90034CDE910344FEA271416D5DDE9F2
:103FC0000C01964B0326D3E90823FCF7AFFBCDE9A0
:103FD000060104F00F04914D54B9DDE91023DDE929
:103FE0000601FCF7A3FBCDE9060128E00226F2E773
:103FF000E10708D5DDE91001D5E90023FCF76CFAEB
:10400000CDE91001013664100835E5E700F0AF8016
:10401000DDE90C017C42804B04F00F0203EBC2038C
:10402000D3E90023FCF758FA02260023CDE9060164
:104030007A4D2411002C40F08F80002BD3D1DDE984
:1040400006450F9B002B00F0948000222046294655
:10405000734BFCF7B3FC002800F08B80089B002B0F
:1040600000F08780BBF1000F34DD20460022294696
:104070006C4BFCF731FA5C46CDE9060107F1FF38DD
:1040800001363046FCF7BEF9DDE90623FCF724FAD9
:104090000022654BFCF76AF80546A1F15076002C2A
:1040A0006AD1DDE906010022604BFCF75DF80246AB
:1040B0000B46CDE906232A463346FCF79DFC002833
:1040C00040F09882DDE906012A4606F10043FCF73C
:1040D00075FC38BBDDE90C34CDE90634159B002BAB
:1040E000C0F257810E2F00F354814B4B03EBC703F3
:1040F000D3E90034CDE90434219B002B80F2E58024
:10410000089B002B00F3E1800CD1DDE904010022C3
:10411000464BFCF7E1F9DDE90623FCF763FC0028D8
:1041200000F0668200242546219B56466FEA03086C
:1041300000272146484600F0BDFC002D00F0BD8060
:104140002FB1AF4203D03946484600F0B3FC2946B0
:10415000484600F0AFFCB0E0E20705D5D5E9002302
:10416000FCF7BAF9012301366410083562E702262C
:1041700065E7B846089C84E7274B0B9903EBC4031B
:1041800053E902235444002954D000202849FCF765
:10419000CDFA33462A46FBF7E7FF5646CDE9100134
:1041A000DDE90601FCF748FC0546FCF72BF9024661
:1041B0000B46DDE90601FBF7D7FF02460B4630351B
:1041C000CDE90623DDE9102306F8015BFCF7F6FBD9
:1041D000002872D1DDE9062300201149FBF7C4FF56
:1041E000DDE91023FCF7EAFB002840F0B480A6428A
:1041F0003FF470AFDDE9100100220A4BFCF76CF9C7
:104200000022CDE91001DDE90601064BFCF764F957
:10421000CDE90601C4E700BF385E0008105E000863
:104220000000F03F0000244000001C40000014404B
:104230000000E03F31462846FCF74EF95646CDE9EE
:1042400010011394DDE90601FCF7F6FB0546FCF7C7
:10425000D9F802460B46DDE90601FBF785FF024669
:104260000B46303506F8015BA642CDE906234FF038
:10427000000224D1DDE91001AE4BFBF777FF0246C7
:104280000B46DDE90601FCF7B7FB002863D1DDE949
:1042900010230020A749FBF767FF02460B46DDE924
:1042A0000601FCF78BFB00283FF414AF139E731E2E
:1042B000139316F8013C302BF8D047463BE09E4B59
:1042C000FCF70AF9CDE90601BCE75646DDE90645EB
:1042D000DDE9042320462946FCF728FAFCF7ACFB6D
:1042E0008046FCF78FF8DDE90423FCF7F5F8024679
:1042F0000B4620462946FBF737FF08F13004089D9E
:1043000006F8014BA6EB0A04A54202460B4633D140
:10431000FBF72CFFDDE9042304460D46FCF76CFB9C
:10432000C0B9DDE9042320462946FCF73DFB10B166
:1043300018F0010F0ED14846039900F0BBFB002393
:104340003370229B01371F60249B002B00F04B82AF
:104350001E6048E2B84633461E4613F8012D392A3E
:1043600006D19A45F8D1302208F101088AF80020D8
:104370001A7801321A70A0E700226F4BFCF7ACF8F4
:104380000022002304460D46FCF70EFB00289FD0B8
:10439000D1E70B9A002A00F0EA80209A012A00F364
:1043A000CD80129A002A00F0C18003F233430A9CA8
:1043B000049E049A01211A440492099A48461A4418
:1043C000099200F02BFC054666B1099B002B09DD24
:1043D000B342A8BF3346049AF61AD21A0492099A35
:1043E000D31A09930A9B0BB30B9B002B00F0C680DA
:1043F000002C00F0C08029462246484600F0C6FC4A
:10440000039A01460546484600F01EFC0399804683
:10441000484600F04FFB0A9B1B1B0A9300F0B1803B
:1044200041460A9A484600F0B1FC039001214846F3
:1044300000F0F4FB0E9B0446002B00F0D8811A46D6
:104440000146484600F0A2FC209B0446012B00F3E5
:104450009F80069B002B40F09780079BC3F31303BC
:10446000002B40F09380079B23F000431B0D1B059E
:1044700033B1049B01330493099B01330993012356
:104480000A930E9B002B00F0B881236904EB830391
:10449000186900F077FBC0F12000099B184410F068
:1044A0001F0000F08280C0F12003042B73DD049B09
:1044B000C0F11C0003440493099B06440344099380
:1044C000049B002B05DD1A464846039900F0B8FC12
:1044D0000390099B002B05DD21461A46484600F053
:1044E000AFFC04460F9B002B61D02146039800F0DF
:1044F00013FD00285BDA00230A224846039900F0E6
:10450000FBFA0B9B07F1FF380390002B00F077813B
:10451000294600230A22484600F0EEFABBF1000FBC
:1045200005466FDC209B022B49DC6BE0149BC3F13A
:1045300036033CE70000E03F00002440089B5C1E7F
:104540000A9BA34209DB1C1B089B002BBFF630AF64
:10455000049B089A9E1A00232BE70A9B0E9AE31AE3
:104560001A440A94049E0024089B0E9221E70A9C98
:10457000049E0B9D28E7DDF80C8051E70A9A039909
:1045800050E7CDF80C8051E7002379E7069B77E7E9
:1045900000230A9379E793D0049A1C331A440492B7
:1045A000099A1E441A4409928AE70346F4E7089BD5
:1045B000B846002B20DC9B46209B022B1EDDBBF166
:1045C000000F7FF4B1AD21465B460522484600F05E
:1045D00093FA01460446039800F09EFC00287FF7FA
:1045E000A3AD5646312308F1010806F8013B9FE5CB
:1045F000B846089C2546F4E7DDF820B00B9B002B5D
:1046000000F00181002E05DD29463246484600F0C3
:1046100017FC05460A9B002B5CD04846696800F0F1
:1046200009FA064628B9024640F2EF21804BFFF70F
:1046300043BB2A6905F10C01023292000C3000F0F4
:10464000EFFF01223146484600F0FAFB2F460546AF
:104650000AF1010304930AEB0B030A93069B03F090
:1046600001030993049B2146039803F1FF3BFFF7E5
:1046700084FA034639463033069003980B9300F0D2
:104680004BFC2A4608902146484600F061FCC2686F
:1046900006460B9B02BB0146039800F03DFC024618
:1046A0000B9B31464846CDE90B3200F003FA209BC4
:1046B0000C9A049E42EA0301099B19430B9B0DD1FE
:1046C000392B27D0089A002A01DD069B31338BF85D
:1046D00000302EE52846B9E70122E2E708990029D3
:1046E00004DB209801430998014320D1002AEEDD24
:1046F000012203994846049300F0A2FB214603904F
:1047000000F00AFC0028049B02DCE0D1DA07DED5C9
:10471000392BDAD139238BF8003033461E4616F890
:10472000012C013B392A4ED001321A7001E5002AD2
:1047300003DD392BEED00133C9E7049A0A9902F858
:10474000013C8A4228D000230A220399484600F0FF
:10475000D3F9AF4203904FF000034FF00A023946FD
:10476000484607D100F0C8F907460546049B0133C7
:10477000049377E700F0C0F92946074600230A2290
:10478000484600F0B9F90546F0E7BBF1000FCCBF91
:104790005E460126002756440122039948460493A9
:1047A00000F04EFB2146039000F0B6FB0028B4DC7D
:1047B00002D1049BDB07B0D433461E4613F8012D0B
:1047C000302AFAD0B5E49A45A8D1312308F101087E
:1047D0008AF80030ADE4249BDFF858A01BB10AF141
:1047E0000803249A1360504617B0BDE8F08F209B51
:1047F000012B7FF72EAE0E9B0A9301204DE6BBF1F5
:10480000000F7FF7D9AE564621460398FFF7B5F95A
:1048100000F1300306F8013BA6EB0A029345B4DD34
:1048200000230A224846039900F066F90390EBE75B
:10483000135D0008975C000838B50546002940D094
:1048400051F8043C0C1F002BB8BFE41800F0E6F848
:104850001C4A136833B9636014602846BDE83840C9
:1048600000F0E2B8A34208D9206821188B4201BFAA
:1048700019685B6809182160EDE71A465B680BB19F
:10488000A342FAD911685018A0420BD12068014404
:10489000501883421160E0D118685B6808441060CA
:1048A0005360DAE702D90C232B60D6E72068211881
:1048B0008B4201BF19685B6809182160636054600E
:1048C000CBE738BD10050020024B0146186800F008
:1048D00025B800BF1800002070B50F4E0C46316897
:1048E000054611B900F08CFE30602146284600F0E4
:1048F00087FE431C03D14FF0FF34204670BDC41C1B
:1049000024F00304A042F8D0211A284600F078FED3
:104910000130F2D1EFE700BF0C0500202DE9F8438C
:10492000CD1C25F0030508350C2D38BF0C25002DB6
:10493000064601DBA94204D90C2333600020BDE800
:10494000F883DFF8D48000F069F8D8F800301C460E
:1049500044BB29463046FFF7BFFF431C044658D1ED
:10496000D8F800402746002F43D1002C4BD02368B5
:104970003946304604EB030900F042FE814542D13E
:10498000216830466D1A2946FFF7A6FF01303AD05C
:1049900023682B442360D8F800305A6862BBC8F8FB
:1049A00000700FE02268521B20D40B2A17D961191E
:1049B000A342256018BF5960636808BFC8F800109B
:1049C00062514B60304600F02FF804F10B00231DBC
:1049D00020F00700C21A1CBF1B1AA350AFE7626881
:1049E000A3420CBFC8F800205A60EBE72346646876
:1049F000AEE73C467F68B6E71A465B68A342FBD148
:104A000000235360DEE70C233046336000F00CF8DF
:104A100094E70560D6E700BF100500200148FFF7C6
:104A20009CB800BF080500200148FFF797B800BFF9
:104A30000805002070B5C66904460D4676B91020F9
:104A4000FFF742FF0246E06120B96B21174B18487F
:104A500000F0F4FDC0E901660660C660E669F3682F
:104A600083B1E369DB6853F82500B8B9012101FA85
:104A700005F6721D2046920000F0FEFD60B1C0E90F
:104A800001560EE021220421204600F0F5FDE369E5
:104A9000F060DB68002BE4D1002070BD026843F8B1
:104AA00025200023C0E90333F7E700BFA45C00081A
:104AB000245D000870B5C66905460C4676B910201D
:104AC000FFF702FF0246E86120B98F21084B094831
:104AD00000F0B4FDC0E901660660C6603CB1EB6958
:104AE0006268DB6853F82210216043F8224070BDF1
:104AF000A45C0008245D00082DE9F04107460C463F
:104B00001E4600200D6901F1140CDCF80030013064
:104B100099B202FB01611E0C0B0C02FB063389B239
:104B200001EB034185424FEA13464CF8041BECDCD1
:104B30000EB3A368AB4219DC616838460131FFF758
:104B400079FF804628B90246BA210C4B0C4800F088
:104B500075FD226904F10C01023292000C3000F064
:104B60005FFD21463846FFF7A5FF444604EB850369
:104B700001355E6125612046BDE8F081135D0008C6
:104B8000245D00080346B0F5803F3ABF03041020BF
:104B90000020B3F1807F3CBF1B020830B3F1805F7F
:104BA0003CBF1B010430B3F1804F3CBF9B0002307F
:104BB000002B05DB13F0804F00F1010008BF20201F
:104BC00070470368024613F007000BD0D90721D4C1
:104BD000980749BF5B089B08012013605CBF022057
:104BE0001360704799B209B910201B0CD9B209B9EA
:104BF00008301B0A190704BF1B090430990704BFBA
:104C00009B080230D90703D45B0800F1010003D0F0
:104C100013607047002070472020704710B50C4685
:104C20000121FFF707FF024628B940F24511044B66
:104C3000044800F003FD01234461036110BD00BF7F
:104C4000135D0008245D00082DE9F04F17460A693E
:104C50003B6989469A42A2BF3B460F4699463D6949
:104C6000D9F810A0BB68796805EB0A06B34285B095
:104C7000B8BF0131FFF7DEFE30B902464FF4B17123
:104C8000404B414800F0DAFC00F1140423460022B6
:104C900004EB860E734520D307F1140809F11401C3
:104CA00008EB850501EB8A030293EB1B153B23F010
:104CB000030304331537BD4238BF04230193029B1D
:104CC00003918B420CD8002E03DD5EF8043D002BCF
:104CD00055D0066105B0BDE8F08F43F8042BD9E745
:104CE000B1F800A0BAF1000F1FD0C446A1460027BA
:104CF0005CF8042BD9F800301FFA82FB9BB20AFB48
:104D00000B333B44D9F80070120C3F0C0AFB0272C3
:104D100002EB13429BB243EA024365454FEA124756
:104D200049F8043BE4D8019BE750039B0431B3F8F6
:104D30000290B9F1000F20D04746A4464FF0000A78
:104D40002368B7F800B0BCF802209BB209FB0B2225
:104D5000524443EA02434CF8043B57F8043B4FEA01
:104D6000134ABCF80030BD4209FB0A3303EB12437F
:104D70004FEA134AE5D8019AA35004349FE7013E55
:104D8000A1E700BF135D0008245D00082DE9F8438A
:104D9000154612F0030207460E4607D0254C013A8D
:104DA000002354F82220FFF7A7FE0646AD103DD0A1
:104DB000FC697CB91020FFF787FD0246F86128B92D
:104DC00040F2B3111C4B1D4800F038FCC0E901440F
:104DD0000460C460D7F81C80D8F808404CB940F291
:104DE00071213846FFF71AFF00230446C8F808006F
:104DF00003604FF00009EB070AD5314622463846DA
:104E0000FFF722FF804631463846FFF753FE4646FD
:104E10006D100BD0206838B9224621463846FFF77E
:104E200013FF2060C0F800900446E4E73046BDE878
:104E3000F88300BF005E0008A45C0008245D000841
:104E40002DE9F0470C46074691462369496803EB74
:104E50006218A3684FEA621A08F10106B3420BDB3D
:104E60003846FFF7E7FD054648B902464FF4EF71B3
:104E7000274B284800F0E2FB01315B00EEE70023FE
:104E800000F1140100F110021846534533DB20698C
:104E90002AEAEA7A04F1140319F01F0901EB8A01E6
:104EA00003EB800C2BD08A460022C9F1200E186833
:104EB00000FA09F010434AF8040B53F8042B9C4500
:104EC00022FA0EF2F3D8ACEB0403153B23F00303F4
:104ED000043304F11500604588BF0423CA500AB1A9
:104EE00008F10206013E384621462E61FFF7E2FD39
:104EF0002846BDE8F08742F8040F0133C5E70439BE
:104F000053F8042B9C4541F8042FF9D8EAE700BF79
:104F1000135D0008245D000803460A69006930B586
:104F2000801A0ED11433143103EB820401EB820199
:104F300054F8045D51F8042D954203D005D24FF08A
:104F4000FF3030BDA342F3D3FBE70120F9E70000B7
:104F50002DE9F74F89460646114648461446FFF7A5
:104F6000DBFF051E12D129463046FFF763FD0246DE
:104F700028B940F237213E4B3E4800F05FFB012349
:104F8000C0E90435104603B0BDE8F08FBCBF4B4606
:104F9000A1463046D9F80410BABF1C4601250025A9
:104FA000FFF748FD024618B940F24521304BE3E7D0
:104FB00000F1140BD9F8107009F11003C5604FF01F
:104FC000000C09F11405D946266904F1140E05EB0D
:104FD00087080EEB86060193019B5EF8040B53F8DD
:104FE00004AF81B201931FFA8AF35B1A000C634489
:104FF000C0EB1A4000EB23409BB243EA00437645E6
:105000004FEA204C49F8043BE6D8331B153B23F00C
:10501000030315340433A64238BF04231D445B4404
:105020001E462C4644450ED308F10301491B21F0CE
:105030000301033DA84538BF00210B4453F8041D6C
:1050400099B117619EE7E64654F8041B1FFA81FCEC
:10505000F444080C714400EB2C4089B241EA004151
:105060004FEA204C46F8041BDCE7013FE6E700BFAF
:10507000135D0008245D00082DE97343012190466B
:105080009946089EFFF7D6FC044630B9024640F226
:105090000F31234B234800F0D1FAC9F30A55C9F365
:1050A00013030DB143F480130193B8F1000324D02E
:1050B00068460093FFF785FDDDE90012D8B1C0F125
:1050C000200302FA03F30B43C24063610192019B88
:1050D000002B0CBF01220222A3612261ADB1A5F217
:1050E000334505443560C0F13500099B1860204602
:1050F00002B0BDE870836161E9E701A8FFF761FDD7
:10510000019B012263612030E7E7A0F2324004EB0B
:10511000820330601869FFF735FDC0EB4210E4E709
:10512000135D0008245D0008936810B4013B002B58
:10513000936007DA9469A34201DB0A2902D110BC0B
:10514000FEF7E9BB1368581C10601970084610BCC4
:105150007047F8B506460F461446D518AC4201D143
:10516000002007E03A46304614F8011BFFF7DCFF49
:10517000431CF3D1F8BD00002DE9F04F0D46144655
:10518000984606469DB018B1036A0BB9FEF7DAFAE5
:105190006B6ED90705D4AB899A0502D4A86DFEF7CA
:1051A000DCFCAB891B0701D52B699BB9294630462E
:1051B000FEF7F0FB70B16B6EDC0704D54FF0FF30EB
:1051C0001DB0BDE8F08FAB899805F7D4A86DFEF748
:1051D000C5FCF3E70023099320238DF82930302301
:1051E0004FF00109CDF80C80DFF8A8818DF82A3046
:1051F00023469A4613F8012B0AB1252AF9D1BAEBB6
:10520000040B0BD05B46224629463046FFF7A1FF30
:10521000013000F0A780099A5A4409929AF80030A8
:10522000002B00F09F8000234FF0FF32CDE90523D3
:105230000AF1010A049307938DF853301A935446E8
:10524000052214F8011B5348FEF789FC049AD8B9CB
:10525000D10644BF20238DF85330130744BF2B23BE
:105260008DF853309AF800302A2B15D05446002080
:105270004FF00A0C079A214611F8013B303B092BED
:105280004BD9B0B1079214E0A0EB080309FA03F37D
:105290001343A2460493D2E7039B191D1B68039195
:1052A000002BBBBF5B4242F0020207930793B8BFDB
:1052B000049223782E2B0AD163782A2B32D1039BB8
:1052C00002341A1D1B68039243EAE3730593DFF867
:1052D000C8A0032250462178FEF741FC38B1402295
:1052E000049BA0EB0A00824013430134049314F89A
:1052F000011B062229488DF82810FEF730FC0028F3
:105300003FD0274B1BBB039B073323F00703083316
:105310000393099B3B4409936AE70C4601200CFB6D
:105320000232A8E700234FF00A0C19460134059316
:10533000204610F8012B303A092A03D9002BC6D099
:105340000591C4E7044601230CFB0121F0E703AB00
:1053500000932A463046134B04A9FDF7ABFD0746E0
:10536000781CD6D16B6ED90705D4AB899A0502D4C7
:10537000A86DFEF7F3FBAB895B063FF51FAF0998FD
:105380001EE703AB00932A463046064B04A9FEF7FE
:105390002FF8E4E77D5D0008835D0008875D000865
:1053A000B52E000853510008B1F90C20F8B51607C6
:1053B00005460C4654D44B68002B02DC0B6C002BCA
:1053C00048DDE66A002E45D0002312F480522F6893
:1053D000216A2B6030D0626DA389590705D56368B7
:1053E000D21A636B0BB1236CD21A00232846E66AEB
:1053F000216AB047431CA38906D129681D292BD8EF
:10540000284ACA40D60727D5002262602269D904FB
:10541000226004D5421C01D12B6803B96065616B21
:105420002F60B9B104F14403994202D02846FFF736
:1054300003FA002363630DE001232846B0470246C8
:10544000501CC9D12B68002BC6D01D2B01D0162BA8
:105450001DD12F60002021E043F040031BB21AE071
:105460000F69002FF6D0930718BF00230E6808BFFE
:105470004B69F61B0F608B60002EEBDD33463A461E
:105480002846216AD4F828C0E047002807DCB4F990
:105490000C3043F040034FF0FF30A381F8BD0744C8
:1054A000361AE9E70100402038B50B6905460C467D
:1054B00013B90025284638BD18B1036A0BB9FEF7A9
:1054C00041F9B4F90C30002BF3D0626ED00704D44C
:1054D000990502D4A06DFEF740FB28462146FFF750
:1054E00063FF636E0546DA07E4D4A3899B05E1D424
:1054F000A06DFEF733FBDDE770B50C46B1F90E1079
:10550000154600291E4696B00CDAA389002113F037
:10551000800F14BF40234FF48063002031602B6064
:1055200016B070BD6A4600F049F80028EDDB01991D
:1055300001F47041A1F50053594259414FF4806381
:10554000EBE78B89F7B59D0706460C4607D504F1B6
:105550004703236023610123636103B0F0BD6A4602
:1055600001ABFFF7C9FF009F054639463046FFF7FC
:10557000D5F948B9B4F90C309A05EED423F00303F9
:1055800043F00203A381E2E7A389C4E9040743F0DF
:105590008003A381019B20605BB13046B4F90E10FB
:1055A00000F01EF828B1A38923F0030343F00103A0
:1055B000A381A3891D43A581CFE7000038B500234F
:1055C000064D0446084611462B60FBF7DCFF431CE2
:1055D00002D12B6803B1236038BD00BF0405002051
:1055E00038B50023054D044608462B60FBF7D0FF75
:1055F000431C02D12B6803B1236038BD0405002091
:1056000038B50023054D044608462B60FBF7C4FF60
:10561000431C02D12B6803B1236038BD0405002070
:105620000A44914200F1FF3300D1704710B511F8E0
:10563000014B914203F8014FF9D110BD1FB514463B
:105640001A46094B05461B68D8684CB1074BCDE993
:10565000013400912B46064900F042F800F052F860
:10566000044B1C46F3E700BF18000020985D0008BB
:10567000A55D00089A5B000870B5A1FB025434B91F
:105680002946FFF74BF9064628B9304670BD0C2273
:1056900000260260F9E72A462146FEF7D1F9F4E731
:1056A00082B001B901A942B14BB113780B601278F5
:1056B000101E18BF012002B070471046FBE76FF0C4
:1056C0000100F8E70346084641B1FF2A04D98A22BF
:1056D0004FF0FF301A60704701200A7070470000D9
:1056E0000EB403B5014603AB054853F8042B00681C
:1056F0000193FFF741FD02B05DF804EB03B0704782
:1057000018000020062008B500F02CF80120FBF757
:1057100023FF1F2938B505460C4604D9162303601C
:105720004FF0FF3038BDC26B12B152F821304BB987
:10573000284600F031F8224601462846BDE83840A8
:1057400000F018B8012B0AD0591C03D116230360AE
:105750000120E7E70021204642F824109847002066
:10576000E0E70000024B01461868FFF7D2BF00BF18
:105770001800002038B50023064D0446084611469F
:105780002B60FBF7E1FE431C02D12B6803B12360C1
:1057900038BD00BF04050020FBF7D4BE38B5054670
:1057A00000F016F8294604462846FBF741FC68B984
:1057B00000212846FBF714FC40B1FEF7A3F9212392
:1057C000002103600846FBF721FB0446204638BD54
:1057D00020F00042B2F1FF4F2DE9F04103460446AC
:1057E0000AD30146FBF75EFA01462046FBF752F961
:1057F00004462046BDE8F081002AFAD0002806DAE7
:105800000146FBF745F90146FBF700FBF0E710F016
:10581000FF413CD0C2150024192026464FF080716C
:10582000C3F31603A2F17F0543F40003D20758BF68
:105830005B006D105B0072189A42CFBF1A46561873
:1058400064189A1A01384FEA42034FEA5101F2D123
:10585000BAB1154E154F30683968FBF719F9D6F80B
:10586000008001464046FBF7C5FB50B130683968FF
:10587000FBF710F9366801463046FBF7B1FB70B113
:105880000234641004F17C5404EBC554B1E75B00AE
:1058900018020A4601F10101F9D55242BBE7013471
:1058A00024F00104EDE700BF086000080460000870
:1058B000F8B500BFF8BC08BC9E467047F8B500BFFD
:0858C000F8BC08BC9E467047CD
:1058C800051100084D1100085D1100086D11000850
:1058D800000000000D0A3D3D3D204D415833313850
:1058E8003635205254442054656D70657261747564
:1058F80072652053656E736F722054657374203D12
:105908003D3D0D004552524F523A204D41583331DA
:1059180038363520696E697469616C697A617469B1
:105928006F6E206661696C656421205374617475BB
:10593800733A2025640D0A004D4158333138363505
:1059480020696E697469616C697A6564207375632E
:105958006365737366756C6C79210D00436F6E66B1
:10596800696775726174696F6E3A20332D77697251
:10597800652C20525245463D252E3166206F686DB4
:105988002C20524E4F4D494E414C3D252E3166201C
:105998006F686D0D0A0046696C74657220736574D2
:1059A80020746F203630487A0D0A0D002D2D2D20D9
:1059B8004D6561737572656D656E74202564202D63
:1059C8002D2D0D0A00525444205261772056616CE7
:1059D80075653A2025752028307825303458290DEA
:1059E8000A00525444204661756C742064657465DD
:1059F8006374656421205261773A2025750D0A0089
:105A08004552524F523A204661696C656420746F62
:105A18002072656164205254442120537461747566
:105A2800733A2025640D0A00526573697374616EB8
:105A380063653A20252E3366206F686D0D0A004590
:105A480052524F523A204661696C656420746F2047
:105A58007265616420726573697374616E63652130
:105A6800205374617475733A2025640D0A004552F9
:105A7800524F523A204661696C656420746F2072F7
:105A88006561642074656D706572617475726521F5
:105A9800205374617475733A2025640D0A004641D9
:105AA800554C54205354415455533A20307825309E
:105AB8003258202D2025730D0A004661756C7473C9
:105AC80020636C65617265642E0D004E6F206661FF
